:020000040800F2
:1000000098070020A10100083B2B0008F5290008F3
:10001000392B000859090008D532000800000000FB
:10002000000000000000000000000000E92C0008B3
:1000300097090008000000003D2B0008EB2C000889
:10004000BB010008BB010008BB010008BB010008A0
:10005000BB010008BB010008BB010008BB01000890
:10006000BB010008BB010008BB0100085D090008D6
:10007000BB010008BB010008BB010008BB01000870
:10008000BB010008BB01000859080008BB010008BB
:10009000BB010008BB010008BB010008BB01000850
:1000A000BB010008BB010008BB010008BB01000840
:1000B000C12D00080000000000000000BB01000886
:1000C000BB0100080000000000000000BB010008A8
:1000D00000000000BB010008C93200080000000059
:1000E000BB010008BB010008000000000000000088
:1000F0000000000000000000000000000000000000
:10010000000000000000000000000000BB0100082B
:100110000000000000000000BB010008BB01000857
:10012000BB010008BB010008BB010008BB010008BF
:10013000BB010008000000000000000000000000FB
:10014000BB010008BB010008BB010008BB0100089F
:10015000BB010008BB010008BB010008BB0100088F
:10016000BB010008BB010008BB0100080000000043
:10017000BB010008BB0100080000000000000000F7
:10018000BB010008BB010008BB010008DFF80CD070
:1001900000F0ECFA00480047654700089807002087
:1001A0000648804706480047FEE7FEE7FEE7FEE711
:1001B000FEE7FEE7FEE7FEE7FEE7FEE77D2D00082F
:1001C0008D0100082DE9F05F0546002092469B4610
:1001D00088460646814640241BE02846414647465D
:1001E000224600F0EAF853465A46C01A914110D30D
:1001F00011461846224600F0D1F82D1A67EB010887
:100200004F4622460120002100F0C8F817EB0009F4
:100210004E41201EA4F10104DFDC484631462A4647
:10022000434600F000B830BCBDE8C09FD2B201E048
:1002300000F8012B491EFBD270470022F6E710B5EB
:1002400013460A4604461946FFF7F0FF204610BD44
:10025000421C10F8011B0029FBD1801A70472DE9C0
:10026000F04D81EA030404F0004B21F000451446F0
:100270004FF0000A23F0004150EA050220D054EA72
:1002800001021DD0C5F30A570246C5F31303C1F39B
:100290001300C1F30A5640F4801543F48013A7EB12
:1002A0000608101BD64608F2FD3873EB050002D392
:1002B00008F1010801E092185B41B8F1000F03DA80
:1002C00000200146BDE8F08D00204FF48011064665
:1002D00084460EE0171B73EB050705D3121B63EB77
:1002E000050306434CEA010C49084FEA3000921816
:1002F0005B4150EA0107EDD152EA030012D082EAD5
:10030000040083EA0501084305D0101BAB4106D267
:100310000122002306E000224FF0004302E06FF0CC
:10032000010253101AEB06004CEB085110EB0A00C7
:1003300041EB0B01BDE8F04D00F04FB80EB5C10F19
:1003400080EAE0700844CA07002140F233438DE898
:100350000E000A460B4600F04FF803B000BD70B522
:10036000C1F30A5201F000450024C1F3130140F229
:10037000FF3341F480119A4201DA002070BD40F24F
:1003800033439A42A2F2334203DC524200F015F8A2
:1003900000E090402C43F1D0404270BD202A04DBA5
:1003A000203A00FA02F1002070479140C2F1200388
:1003B00020FA03F3194390407047202A04DB203AC7
:1003C00021FA02F00021704721FA02F3D040C2F175
:1003D0002002914008431946704710B5141E73F16E
:1003E000000408DA401C41F1000192185B411A43F5
:1003F00001D120F0010010BD2DE9F04D92469B4641
:1004000011B1B1FA81F202E0B0FA80F220329046E6
:10041000FFF7C4FF04460F4640EA0A0041EA0B0119
:1004200053465A46084313D0114653EA010019D0E7
:10043000C8F140025046FFF7C0FF05460E46504641
:1004400059464246FFF7AAFF084305D0012004E0C1
:1004500020463946BDE8F08D0020054346EAE076A7
:100460002C4337430A986305E40AA0EB08000022F6
:10047000FD0A44EA47540A3002D500200146E9E764
:10048000010510196941DDE9084500196941BDE818
:10049000F04DA2E72DE9FE4F804681EA0300C00F30
:1004A0000C46009021F0004123F00045B8EB02001B
:1004B000A94105D24046214690461C460B460246BD
:1004C00023F00040104347D0270DC7F30A00C3F3C1
:1004D0000A510290401A019040286BDAC3F31300CE
:1004E00040F4801B0098924620B10023D2EB030A0F
:1004F00063EB0B0B01985946C0F140025046FFF7E1
:100500004DFF06460D4650465946019A00F040F907
:1005100010EB08006141002487EA115284EAE77376
:100520001A4340D0009A62B3019A012A4FEA075257
:1005300015DC001B61EB02014FF0004202EA07529A
:10054000CDE90042001C41F5801132462B46FFF7F1
:1005500053FF03B000F045B840462146F9E7001BC1
:1005600061EB0201001C41F5801300185B4120186B
:10057000A2F5001747EB030140EAD570B6196D41AB
:1005800011E06D084FEA360645EAC0754FEA07529A
:10059000001B61EB0201001C41F5801149084FEA84
:1005A00030000019514132462B4603B000F01CB810
:1005B000FFF713BF0098012240000023D0EB020296
:1005C00063EBE073009821464FEAE074B8EB00005B
:1005D00061EB0401E9E783F000435BE781F0004150
:1005E00058E730BCBDE8C08F30BCBDE8C04FFFF756
:1005F000DFBF2DE9FE4F81EA030404F0004421F03F
:10060000004100944FF0000B23F0004350EA010436
:100610005ED052EA03045BD0C3F30A54C1F30A5517
:100620002C44A4F2F3340194A0FB0254C1F313014F
:1006300041F48011C3F3130343F4801301FB02441C
:1006400000FB034E840A970A44EA815447EA835721
:10065000A4FB076802958D0A05FB07854FEA932CDA
:1006600004FB0C542705029D4FEA065847EA16374B
:10067000B5EB08056EEB070C870E920E47EA811763
:1006800042EA8312A7FB0201B6EB0B0164EB000404
:100690002B0D43EA0C335E1844EB1C50DA465146EE
:1006A000E7FB0201C5F313044FEA0B3343EA14538B
:1006B0004FEA0432019C43EA0603A4F10C040294BD
:1006C000009CCDE900B4FFF797FE03B000F003B83B
:1006D00000200146F9E730BCBDE8C08F70B521F0BD
:1006E000004303430CD0C1F30A550024D5EB0405A5
:1006F00064EB0403D617AD1AB34102DB00200146B8
:1007000070BD201841EB025170BD000030B5041ED1
:1007100071F1000404DB4FF00044404264EB01013E
:10072000141E73F1000405DB1C464FF000435242D7
:1007300063EB04038B4208BF824230BD30B5041E18
:1007400071F1000404DB4FF00044404264EB01010E
:10075000141E73F1000405DB1C464FF000435242A7
:1007600063EB0403994208BF904230BD064C074D2D
:1007700006E0E06840F0010394E807009847103471
:10078000AC42F6D3FFF706FD084A0008284A0008E5
:10079000202A06DBCB17203A41FA02F043EAE07345
:1007A00006E041FA02F3D040C2F120029140084332
:1007B000194670472DE9F04D00231A461B1A8A414D
:1007C00003DB00200146BDE8F08DC1F30A52C1F3FE
:1007D000130141F480154FF0000BD10702D100182E
:1007E0006D41521E0027044640F2FF11384601EBCE
:1007F000620A3E468046024600204FF48011FFF711
:10080000DCFDC2197141BB1846EB0100B4EB030CCF
:1008100075EB000C04D3E41A65EB000517460E4691
:10082000241908F101006D4180463428E3DDF919EF
:1008300046EB0600091BA84103D24FF0FF321346D6
:1008400001E0002213461BEB070046EB0A51BDE80E
:10085000F04DFFF7C2BD0000014800F09FBA000054
:100860002002002010B5846A616D11F0500F06D08F
:10087000616DC90625D5204600F08FFA10BD606D68
:1008800040F40070606520680168090716D502F021
:10089000C0F878B12068C068800400280ADB606D69
:1008A00020F480706065606DC00403D4606D40F01A
:1008B00001006065204600F06EFA10BDC068800738
:1008C000EBE7E16C496BBDE81040084710B5806A62
:1008D000416D41F040014165816D41F00401816548
:1008E00000F05BFA10BD10B5806A00F055FA10BD3B
:1008F00070B504460068816811F0010F28D1816845
:10090000144A114215D18168D5432940491C8160A0
:1009100000F020FF064616E0816811F0010F03D1B8
:1009200081682940491C816000F014FF801B022867
:1009300009D9606D40F010006065A06D40F00100C5
:10094000A065012070BD20680168C943C907E3D1D3
:10095000002070BD3F000080FEE70000014800F06D
:1009600032BD00005003002030B590F8444004F040
:100970001C050124AC40056C6C60046863608368EE
:10098000102B036803D099600068C26030BD9A6084
:100990000068C16030BD704770477047704770474E
:1009A000704770472DE9F84F00270446009790F8EC
:1009B0005000DFF8B0930D46B846012811D001264B
:1009C00084F85060206802F020F860B1606D40F05B
:1009D000200060655FF0010784F85080384600F021
:1009E000D7B90220FBE768680C23052812D8022833
:1009F00007D0032807D0042807D0052807D00620F1
:100A000007E06B6006E0122003E0182001E04FF4DD
:100A100080706860D5E90021206803EA91131844CA
:100A2000036B01F01F014FF01F0C0CFA01FCC2F325
:100A3000846223EA0C038A4013430363206801F0B5
:100A4000E4FF8246206801F0DCFF5AEA00001DD175
:100A5000AA682968206801F0E4FF20686969C26813
:100A6000C2F3C102520091402A69042A0FD000EB60
:100A700082002B68026EDFF8F0C203F0F84302EA4E
:100A80000C020B431A4342F00041016672E0002160
:100A900001F0B1FF400320684FF0000172D001F077
:100AA000AAFF90FAA0F0B0FA80F1286842036ED055
:100AB00090FAA0F0B0FA80F0814204D100221146F1
:100AC000206801F0BDFF0121206801F094FF400380
:100AD00020684FF001015DD001F08DFF90FAA0F089
:100AE000B0FA80F12868420359D090FAA0F0B0FA29
:100AF00080F0814204D100220121206801F0A0FF92
:100B00000221206801F077FF400320684FF00201C6
:100B100048D001F070FF90FAA0F0B0FA80F1286898
:100B2000420344D090FAA0F0B0FA80F0814204D1A0
:100B300000220221206801F083FF0321206801F0D8
:100B40005AFF400320684FF0030133D001F053FFF8
:100B500090FAA0F0B0FA80F1286842032FD090FA02
:100B6000A0F0B0FA80F0814204D100220321206875
:100B700001F066FF2068816811F0010F22D0ACE01F
:100B800000E004E001F037FFC0F384618DE7C0F3BB
:100B9000846091E701F02FFFC0F38461A2E7C0F306
:100BA0008460A6E701F027FFC0F38461B7E7C0F3D4
:100BB0008460BBE701F01FFFC0F38461CCE7C0F3A2
:100BC0008460D0E72A7B296850F8B03FC1F3120C4B
:100BD00023EA0C0302F0180C644A22FA0CF20A40D1
:100BE00013430360E968494577D1286841031CD065
:100BF00090FAA0F1B1FA81F1491C01F01F01092915
:100C00004FEA403132D8002912D000BF90FAA0F14B
:100C1000B1FA81F101F1010101F01F0106FA01F6BB
:100C200009D100BFC0F3846109E0C0F38461E3E748
:100C3000C0F38461EEE790FAA0F1B1FA81F101F11D
:100C4000010101F01F0146EA816102D1C0F3846015
:100C500003E090FAA0F0B0FA80F000F1010000F09B
:100C60001F0000EB400041EA005132E000290ED0A5
:100C700090FAA0F1B1FA81F101F1010101F01F0137
:100C800006FA01F606D100BFC0F3846106E0C0F3A6
:100C90008461F1E790FAA0F1B1FA81F101F101016B
:100CA00001F01F0146EA816102D1C0F3846003E0D4
:100CB00090FAA0F0B0FA80F000F1010000F01F00FF
:100CC0002B4A00EB400002EB005041EA000141F0EA
:100CD0000071AA68206801F0A4FE26482A68024232
:100CE0003FF47AAE24488168244D254B01F0E07131
:100CF000AA421AD10D0218D422689A427FF46CAE2F
:100D0000826841F4000122F0E0720A4382601D48CB
:100D10001D490068B0FBF1F000EB4000800000E0EE
:100D2000401E00900028FBD156E6184DAA4207D17C
:100D3000CD0105D422689A42F6D141F080710AE0D3
:100D40006FF00045EA42EFD14A02EDD422689A42A0
:100D5000EAD141F48001826822F0E0720A438260A5
:100D60003AE6000000007F4000F0FF03FFFF0700AD
:100D7000000020FE0000088000030450000052C75D
:100D80000000045018000020400D0300000084CB38
:100D900018BCBDE8E08F7047704770472DE9F041FF
:100DA0000446006806684568B0070ED5A8070CD54C
:100DB000606DC00603D4606D40F40060606520463D
:100DC000FFF7EBFD216802200860700701D5680776
:100DD00003D4300724D5280722D5606DC00603D47C
:100DE000606D40F400706065206801F012FE88B10B
:100DF0002068C16889040DD4016809070AD501F08B
:100E000004FE50B3606D40F010006065A06D40F0CE
:100E10000100A0652046FFF7BEFF21680C20086096
:100E2000B00601D5A80603D4700645D5680643D59B
:100E3000606DC00603D4606D40F4005060652068AA
:100E4000C16C11F0C00F19D05FF0000701F0E1FD97
:100E500021680246C868C7B912E02068416821F0DD
:100E60000C014160606D20F480706065606DC004AD
:100E7000D0D4606D40F001006065CBE70127E5E765
:100E8000830113D492B1820410D40A6852060DD59E
:100E900080020BD4084601F0B4FDE8B3606D40F069
:100EA00010006065A06D40F00100A0652046FFF7CE
:100EB00075FD21686020086030060BD5280609D52D
:100EC000606D40F480306065204600F039F921689B
:100ED00080200860F0050CD5E8050AD5606D40F467
:100EE000003060652046FFF75BFD21684FF480709D
:100EF0000860B0050CD5A8050AD5606D40F48020C7
:100F000060652046FFF74DFD21684FF400700860D2
:100F1000F00617D5E80600E029E013D5606B18B19C
:100F20002068C068C0070AD0606D40F480606065CA
:100F3000A06D40F00200A0652046FFF72EFF21685B
:100F400010200860700523D5680521D5606D40F438
:100F500080406065A06D40F00800A06521684FF4F6
:100F6000806008602046BDE8F041FFF718BD2068AA
:100F7000416821F060014160606D20F4805060653F
:100F8000606DC00592D4606D40F0010060658DE732
:100F9000BDE8F081F8B54FF0000504002E4600953D
:100FA00002D0606D10B107E00120F8BD204600F0CE
:100FB000C9F8A66584F8506020688168C1F3407163
:100FC00019B18168564A1140816020688168C1F377
:100FD000007179B98168534A114041F080518160B4
:100FE000514852490068B0FBF1F000E0401E00900B
:100FF0000028FBD120688168C1F3007141B9616D9F
:1010000041F010016165A16D41F00101A16501256B
:1010100001F0FBFC616DC90600D430B1606D40F099
:101020001000606501252846F8BD606D20F48070D1
:1010300040F0020060652068806810F0010F0BD15D
:101040003B48806810F0010F06D13A486168826819
:1010500022F47C120A438260E168606B627E08437E
:10106000A16841EA4231084394F8201040EA014067
:10107000012904D1A18C304A02EB41410843A16A05
:1010800029B101F47071E26A014342EA010021686A
:10109000CA682A4B1A400243CA60206801F0B5FCB6
:1010A0000646206801F0ADFC304315D1207E94F84F
:1010B0003010800340EA41022068C16844F2020314
:1010C00099431143C16094F8380001280CD020687E
:1010D000016921F001010161206901282068016B8B
:1010E00021F00F0111D013E0D4E90F010843D4E936
:1010F00011121143084321680A6940F2FC739A43B4
:10110000104340F001000861E6E7E269521E114316
:101110000163606D20F0020040F00100606582E72D
:10112000C0FFFF5FC0FFFF7F18000020400D0300DD
:1011300000000450000304500000FEFF07C0F0FF51
:101140007047000070B586B0064614216846FFF768
:1011500074F81F493068884238D11E49C86C40F481
:101160000050C864C86C00F400500590C86C40F092
:101170000200C864C86C002500F00200059002203F
:1011800000900B20CDE901056946134800F010FAE4
:10119000134C1248C4E90005A5604015E560C4E998
:1011A00004508000A0612020C4E90705204600F01B
:1011B00067F908B1FFF7F0FBF46400221146122032
:1011C000A66200F02BFB122000F01AFB06B070BDE7
:1011D00000000450001002400004004808000240D3
:1011E0005003002070B5044615460E46006801F015
:1011F0000CFCE0BB94F85000012842D0012084F898
:1012000050002046FFF774FB002110B184F8501005
:1012100070BD606D40F60162904340F4807060657F
:10122000606DC00404D5A06D20F00600A06500E04C
:10123000A165E26C1448D062E26C14481063E26C61
:101240001348506322681C20106084F850102068F6
:10125000416841F0100141602068C16841F001011E
:10126000C16021682B4632464031E06C00E008E066
:1012700000F066F921688A68064B1A40121D8A60E0
:1012800070BD022070BD000065080008E708000876
:10129000CD080008C0FFFF7F10B50446006801F0CC
:1012A000B4FB10B10221084610BD94F8500001288B
:1012B0000CD0012084F850002046FFF719FB0100F4
:1012C0004FF0000004D084F85000ECE7022010BD7D
:1012D000626D40F601639A4342F480726265626D0A
:1012E000D20404D5A26D22F00602A26500E0A0653A
:1012F00023681C221A6084F850002068426822F09B
:101300001C024260606908282068426802D042F0EE
:10131000040201E042F008024260606B20B92068DC
:10132000426842F0100242602068C268920119D5FA
:10133000626D22F4005242F4805262656269082AAA
:10134000426807D022F0400242602068426842F0C2
:10135000200206E022F0200242602068426842F04B
:101360004002426020688268024B1A40121D82606F
:1013700099E70000C0FFFF7F10B590F8251000240A
:10138000022903D00421C16301241AE001680A681C
:1013900022F00E020A6001680A6822F001020A6067
:1013A00090F84410036C01F01C02012101FA02F2D2
:1013B0005A6080F82510002180F82410816B01B15B
:1013C0008847204610BDF0B4016C0C6801680D68B8
:1013D00090F8442002F01C06042202FA06F323428D
:1013E00011D06B070FD50B689B0603D40B6823F055
:1013F00004030B6090F8441001F01C018A40016C5A
:101400004A60016B1DE0022303FA06F727424FF002
:10141000000C4FF0010218D0AF0716D50C68A406D7
:1014200005D40C6824F00A040C6080F8252090F89C
:10143000441001F01C018B40016C4B6080F824C00B
:10144000C16A00291AD0F0BC08470823B3402342E0
:1014500014D02B0712D50B6823F00E030B6090F805
:101460004410036C01F01C0102FA01F15960C263DF
:1014700080F8252080F824C0416BE2E7F0BC70477B
:1014800070B568B12B4C036814212B4AA34209D2D2
:101490002A4C1C44B4FBF1F18900C0E910210BE097
:1014A000012070BD234C64421C44B4FBF1F189005F
:1014B0004164204908390164022180F825101C6824
:1014C00047F6F0718C43D0E902152943D0E9045660
:1014D0003543294385692943C5692943056A294359
:1014E000214319608168B1F5804F19D0036C0F2139
:1014F000934202D152F8A83F02E00E4AA03213688C
:1015000090F8444004F01C04A1408B43136090F811
:101510004430416803F01C0399401368194311607B
:101520000021C163012280F8252080F8241008469C
:1015300070BD00000804024000000240F8FFFDBF3B
:1015400070B5044690F82400002501280CD0012035
:1015500084F8240094F825600020012E06D084F839
:1015600024000225284670BD022070BD022684F8A2
:101570002560E0632068066826F0010606602046C4
:10158000FFF7F2F9206B00282068016802D041F0D3
:101590000E0106E021F0040101602068016841F0BD
:1015A0000A0101602068016841F001010160D9E78A
:1015B0002DE9FC4FDFF880A1002301250AF1040B7F
:1015C00003244FF00F0C0BF1040EAEE005FA03F606
:1015D00032406FD04F68012F05D0022F03D0112F5A
:1015E00001D0122F17D1D0F808905F0004FA07F845
:1015F00029EA08090097D1F80C8008FA07F848EAA8
:101600000908C0F808804768B7430E79C6F300168A
:101610009E403E434660C6684FEA430804FA08F716
:10162000BE4301978F6807FA08F73743C7604E68D3
:10163000022E01D0122E13D1DE0800EB8606009692
:10164000366A5F07FF0E0CFA07F926EA0906D1F899
:10165000109009FA07F949EA0609009EC6F8209099
:101660000768019EB7430E7906F0030606FA08F6EE
:101670003E4306604E68F60056D5304E376E47F052
:1016800001073766366E23F0030706F00106009661
:101690002B4E3E44B146B6689F074FEA17780CFAC6
:1016A00008F7BE43B0F1904F05D0264FB84204D1A1
:1016B000012708E038E0002705E0234FB84201D1B8
:1016C000022700E0072707FA08F73743C9F8087030
:1016D000DAF800605746D1F8048096435FEAC838CC
:1016E00000D516433E60DBF800605F46D1F8048009
:1016F00096435FEA883800D516433E60DEF8006006
:101700007746D1F8048096435FEAC82800D516438F
:101710003E60094F0C373E68D1F8048096435FEA7B
:10172000882800D516433E605B1C0A6832FA03F62F
:101730007FF44CAF00F00AB80004014000100240F2
:101740000000014000040048000800481CBCBDE83F
:10175000E08F000001488068704700000C00002006
:101760000248816802781144816070470C000020B3
:1017700010B50024032000F071F8002000F008F8F4
:1017800008B1012401E000F025F8204610BD00005A
:1017900070B50E4E05460024307898B14FF47A713A
:1017A000B1FBF0F00A490968B1FBF0F000F0A6FDCA
:1017B00040B9102D06D200222946501E00F02EF806
:1017C000756000E00124204670BD00000C00002080
:1017D00018000020094808B5016E41F001010166BA
:1017E000016E01F001010091816D41F08051816530
:1017F000806D00F08050009008BD00000010024095
:10180000002809DB00F01F020121914040098000FF
:1018100000F1E020C0F8001170470000F0B40E4B5A
:101820001B680C46C3F30223C3F10705042D00D93E
:101830000425191D072901D2002300E0DB1E012623
:1018400006FA05F1491E214099409E40761E164039
:101850003143F0BC01F057BD0CED00E0064900F04B
:10186000070208684FF6FF03184040EA0220034AC7
:1018700010430860704700000CED00E00000FA051E
:101880001649B0F5007F0868C0F3412009D002284E
:1018900005D0086820F4C06040F480600860002033
:1018A00070470128FBD0086820F4C06040F4007045
:1018B00008600B483222006850430A4AB0FBF2F03D
:1018C000401C00E0401E4A69520501D50028F9D1AC
:1018D00048694005E3D503207047000000700040D0
:1018E0001800002040420F000248006800F4C06069
:1018F00070470000007000402DE9F84F04460027B3
:1019000000889C4D3E46000515D5E06B60B1B0F5F2
:10191000000F04D0B0F5400F2BD001270AE0E86893
:1019200040F48030E86024E00021201D01F008F937
:1019300007001ED03E462068800338D5A86D4FF0C2
:101940000008C00009D4A86D40F08050A865A86DBB
:101950004FF0010800F080500090DFF81CA2DAF888
:10196000001041F48071CAF80010FFF7F3FE8146C1
:1019700010E0D5F88800E16B20F440000843C5F87A
:101980008800D8E7FFF7E6FEA0EB0900022801D99E
:10199000032704E0DAF80000C005F3D5EFB33E46B4
:1019A000B8F1000F03D0A86D20F08050A865207812
:1019B000C00707D0D5F88800216A20F0030008434B
:1019C000C5F888002078800707D5D5F88800616AB7
:1019D00020F00C000843C5F888002078800607D561
:1019E000D5F88800A16A20F440600843C5F8880053
:1019F0002088800507D5D5F88800616B20F4402049
:101A00000843C5F888002088400509D5D5F8880026
:101A1000A16B20F44010084300E02EE0C5F88800D8
:101A20002078400607D5D5F88800E16A20F44050B8
:101A30000843C5F888002088C00507D5D5F8880078
:101A4000216B20F440300843C5F8880020884FF00F
:101A5000006780044FF080684ED5D5F88800216C6F
:101A600020F040600843C5F88800206CB8423BD1A4
:101A7000E86840F48010E8603EE0D5F8900010F48B
:101A8000407014D0216D814211D0D5F89000D5F866
:101A9000901020F4407041F48031C5F89010D5F8D2
:101AA000901021F48031C5F89010C5F89000C0075F
:101AB00011D0FFF74FFE074641F2883907E000BF1B
:101AC000FFF748FEC11B494501D9032668E7D5F851
:101AD00090008007F4D5D5F89000216D20F4407077
:101AE0000843C5F890005BE7404505D10121201D62
:101AF00001F026F800B106462068400317D5D5F856
:101B00008800616C20F040600843C5F88800606C74
:101B1000B84204D1E86840F48010E86007E040452E
:101B200005D10121201D01F00BF800B106462088E7
:101B3000400411D5D5F88800A16C20F0405008432E
:101B4000C5F88800A06CB0F1805F05D10221201D8E
:101B500000F0F6FF00B106462088000406D555F8CF
:101B6000880FE16C20F0804008432860304600F088
:101B700005B80000001002400070004018BCBDE82D
:101B8000E08F00002DE9F0470F46050058D0404E89
:101B9000306800F00700B84209D2306820F0070032
:101BA00038433060306800F00700B84248D12878E8
:101BB000384CC0072CD06868032811D0022812D0F6
:101BC000216898B1490500293ADAA16821F003019A
:101BD0000143A160FFF7BEFD804641F2883910E065
:101BE00021688901EFE721688903ECE78907EAE7C3
:101BF000FFF7B0FDA0EB0801494502D90320BDE87D
:101C0000F087A068696800F00C00B0EB810FEFD19D
:101C10002878800705D5A068A96820F0F00008435F
:101C2000A060306800F00700B8420BD9306820F09F
:101C3000070038433060306800F00700B84201D038
:101C40000120DCE72878400705D5A068E96820F482
:101C5000E0600843A0602878000706D5A0682969DD
:101C600020F4605040EAC100A06000F03FF8A16895
:101C7000094AC1F30311515C01F01F01C840074933
:101C8000086007480068BDE8F047FFF781BD000025
:101C90000020024000100240F84800081800002010
:101CA000100000200548064900688968054AC1F30C
:101CB0000221515C01F01F01C8407047180000204C
:101CC0000010024038490008054806490068896844
:101CD000054AC1F3C221515C01F01F01C8407047A1
:101CE00018000020001002403849000870B525494E
:101CF000002318468A68CC6812F00C0204F0030630
:101D0000214C4FEA640509D00C2A05D0042A32D0B0
:101D1000082A00D1284670BD012E10D10B681B0780
:101D200004D4D1F89430C3F3032302E00B68C3F367
:101D30000313164E56F82330DAB10C2AEBD1C868DB
:101D400000F00300022818D0032818D01846CA68EB
:101D5000CB68C2F30212C3F306234343521CB3FB06
:101D6000F2F2C868C0F34160401C4000B2FBF0F0E2
:101D700070BD184670BD204670BD2046E7E7284676
:101D8000E5E70000001002400024F40008490008C4
:101D90002DE9F84304006FD0FE4DA86800F00C0652
:101DA000E86800F003072078C00664D576B10C2EF1
:101DB00001D1012F0AD0A069002828687AD040F00C
:101DC00001002860FFF7C6FC80465DE028688007B8
:101DD00002D5A0690028DED0216A2868000703D553
:101DE000286800F0F00004E0D5F89400F02202EA40
:101DF0001010814216D9084600F038FF00283BD168
:101E0000286840F0080028602868216A20F0F00067
:101E1000084328606868E16920F47F4040EA0120B7
:101E2000686016E0286840F0080028602868216A89
:101E300020F0F000084328606868E16920F47F40E2
:101E400040EA0120686026B9206A00F00FFF0028F0
:101E5000D5D1FFF74BFFA968CF4AC1F30311515CFD
:101E600001F01F01C840CD490860CD480068FFF768
:101E70008FFC00287ED12EE0CAE000BFFFF76AFC8D
:101E8000A0EB0800022876D828688007F6D52868D5
:101E900040F0080028602868216A20F0F00008431C
:101EA00028606868E16920F47F4040EA01206860AA
:101EB00011E0FFE720F001002860FFF74BFC8046AF
:101EC00006E000BFFFF746FCA0EB08000228DAD8C6
:101ED00028688007F6D42078C00740D0082E18D094
:101EE0000C2E01D1032F14D06068B0F5803F17D0BD
:101EF000B0F5A02F286817D020F48030286028681B
:101F000020F4802028606068E0B1FFF723FC804661
:101F100014E02868800322D56068002878D01EE08D
:101F2000286840F48030EDE740F480202860F7E72F
:101F3000FFF710FCA0EB08006428A4D828688003F1
:101F4000F6D50CE0FFF706FC804605E0FFF702FC43
:101F5000A0EB0800642896D828688003F6D420787F
:101F600080073BD5042E11D00C2E01D1022F0DD0AD
:101F7000E06801E0B6E1FFE0002828681ED040F4E8
:101F800080702860FFF7E6FB07460CE028684005F4
:101F90000CD5E0680028C1D008E000BFFFF7DAFBED
:101FA000C01B022893D828684005F7D56868217CB3
:101FB00020F0FE4040EA016068600FE020F480708D
:101FC0002860FFF7C7FB074605E000BFFFF7C2FB2D
:101FD000C01B0228B1D828684005F7D42078000734
:101FE00029D560690028D5F8940012D040F001008E
:101FF000C5F89400FFF7AEFB074604E0FFF7AAFB25
:10200000C01B022899D8D5F894008007F6D512E0B5
:102010002BE120F00100C5F89400FFF79BFB074679
:1020200005E000BFFFF796FBC01B022885D8D5F856
:1020300094008007F6D42078400766D5A86D002765
:10204000C00008D4A86D40F08050A865A86D012795
:1020500000F08050009053480168C90512D401680F
:10206000814641F480710160FFF774FB804605E012
:10207000FFF770FBA0EB080002287DD8D9F800001C
:10208000C005F5D5A068012816D00528D5F8900020
:1020900017D020F00100C5F89000D5F8900020F08E
:1020A000040000BFC5F89000A06841F28839C0B1B3
:1020B000FFF750FB80460FE0D5F8900040F001009C
:1020C000F0E740F00400C5F89000F5E7FFF742FBA9
:1020D000A0EB080149454FD8D5F890008007F5D509
:1020E0000EE0FFF737FB804606E000BFFFF732FB4C
:1020F000A0EB080149453FD8D5F890008007F5D4FA
:102100001FB1A86D20F08050A8652078800628D5E2
:10211000606A0028D5F8980012D040F00100C5F898
:102120009800FFF717FB074605E000BFFFF712FB1B
:10213000C01B022820D8D5F898008007F6D510E0FB
:1021400020F00100C5F89800FFF704FB074604E003
:10215000FFF700FBC01B02280ED8D5F898008007B7
:10216000F6D4A06AA8B1022824D00C2E7DD028680D
:1021700020F08070286000E0B3E02868000103D4FC
:10218000E86820F00300E860E86807490840E86074
:102190000CE09FE000100240F84800081800002002
:1021A0001000002000700040FFFFEEFEFFF7D2FAA3
:1021B000044699E0E868E26A00F00301914226D102
:1021C000216B00F070020901103991421FD1626B3E
:1021D00000F4FE41B1EB022F19D194F8382000F041
:1021E0007841B1EBC26F12D1A18F00F4C00249084F
:1021F0004905A1F50011914209D194F8401000F071
:10220000C06049084906A1F1007181424BD00C2EF3
:102210006FD0286840016CD4286820F08070286056
:10222000FFF798FA064604E0FFF794FA801B0228AD
:1022300057D828688001F7D4F4E90B016FF00F023A
:1022400002EB01110843218A5204490802EB415173
:10225000A26841EA02210843217D4FF07E424908ED
:1022600002EB41610843217B00E042E040EAC160AB
:10227000E968214A11400843E860286840F080700E
:102280002860E86840F08070E860FFF763FA044671
:1022900005E000BFFFF75EFA001B022821D828687E
:1022A0008001F7D523E02868800120D4286840F019
:1022B00080702860E86840F08070E860FFF74AFAB4
:1022C000044604E0FFF746FA001B022809D82868F4
:1022D0008001F7D50BE000BFFFF73CFA001B022896
:1022E00002D90320BDE8F88328688001F4D40020D7
:1022F000F8E70120F6E700008C809D0110B5401E34
:10230000B0F1807F01D3012010BD4FF0E024606167
:102310000F21601700F0F7FF0020A0610720206167
:10232000002010BD7047704770470000F0B590F86E
:102330003C20012A29D0012480F83C40022280F868
:102340003D2003685A689D68114EB34203D122F4C0
:1023500070074A683A4322F070070A683A435A60A5
:102360000268B24205D0B2F1804F02D0094B9A42C6
:1023700004D1896825F080031943916080F83D40BD
:10238000002180F83C100846F0BD0220F0BD00009E
:10239000002C01400040014010B5040003D094F827
:1023A0003D0010B107E0012010BD002084F83C0082
:1023B000204600F023F8022084F83D00211D20680B
:1023C00000F02AFD012084F8480084F83E0084F8DB
:1023D0003F0084F8400084F8410084F8420084F80B
:1023E000430084F8440084F8450084F8460084F8EB
:1023F000470084F83D00002010BD000008B50068CB
:10240000B0F1804F12D10A48816D41F00101816520
:10241000806D002200F00100009011461C20FFF7A3
:10242000FDF9BDE808401C20FFF7EAB908BD00002F
:102430000010024090F83D10012901D001207047A2
:10244000022180F83D100168CA6842F00102CA60AA
:1024500000680B49884205D0B0F1804F02D009498D
:10246000884207D18168084A1140062906D0B1F593
:10247000803F03D0016841F00101016000207047F6
:10248000002C0140004001400700010070B50446E7
:1024900090F83C00012817D0012584F83C50022018
:1024A00084F83D00226890682E4B184020F47F404D
:1024B00090600868502830D00DDC20284DD005DC15
:1024C00098B310283BD148E0022070BD302844D09A
:1024D000402834D139E0602828D0702806D0B0F5E3
:1024E000805F2CD0B0F5005F29D10AE0CB68D1E93C
:1024F0000121206800F0C6FC2068816841F0770166
:1025000009E0CB68D1E90121206800F0BBFC20681C
:10251000816841F48041816011E0CA68496820689F
:1025200000F0C2FC5021206807E016E0CA68496844
:10253000206800F0CAFC6021206800F0ADFC84F83F
:102540003D50002084F83C0070BDCA68496820688E
:1025500000F0AAFC40212068EFE7226801461046FF
:10256000EBE7000088FFFEFF704770B50446006887
:1025700001694FF00005C943890715D4C168C943F3
:10258000890711D4E91E0161012020772068806944
:102590008007204602D0FFF7E7FF04E000F0A7F82D
:1025A000204600F0A5F8257720680169C94349074E
:1025B00017D4C168C943490713D46FF004010161FE
:1025C000022020772068806910F4407F204602D0E6
:1025D000FFF7CAFF04E000F08AF8204600F088F810
:1025E000257720680169C943090716D4C168C94322
:1025F000090712D46FF008010161042020772068D8
:10260000C0698007204602D0FFF7AEFF04E000F06B
:102610006EF8204600F06CF8257720680169C94300
:10262000C90617D4C168C943C90613D46FF0100195
:102630000161082020772068C06910F4407F20469F
:1026400002D0FFF791FF04E000F051F8204600F0BF
:102650004FF8257720680169C943C90708D1C168C7
:10266000C943C90704D1891E0161204600F041F821
:1026700020680169C943090609D4C168C94309062C
:1026800005D46FF0800101612046FFF74CFE206801
:102690000169C943C90509D4C168C943090605D4FC
:1026A0006FF4807101612046FFF73CFE20680169EC
:1026B000C943490609D4C168C943490605D46FF026
:1026C00040010161204600F015F820680169C94306
:1026D00089060BD4C168C943890607D46FF020016D
:1026E00001612046BDE87040FFF71EBE70BD704717
:1026F0007047704770477047704700002DE9F04100
:1027000002680446D0691168936840F60F052842B4
:102710004FF0000505D186067BD58E0679D5216E52
:1027200088E04D4F03F001060F40374371D0C707D3
:1027300007D0CF0505D501271762E26F42F00102ED
:10274000E267820708D5DA0706D0276802223A62D4
:10275000E26F42F00402E267420708D5DA0706D0CA
:10276000236804221A62E26F42F00202E267020763
:102770000AD501F02002324306D0236808221A62EB
:10278000E26F42F00802E267020509D54A0107D567
:1027900023684FF400621A62E26F42F02002E2679F
:1027A000E26F002A2ED0800605D5880603D5216E5B
:1027B00009B120468847E06F21688968490602D43C
:1027C00010F0280F20D0204600F02BFC20688168F4
:1027D000490614D5816821F040018160E06E70B136
:1027E0001E498163E06EFEF7C7FD00280AD0E06E47
:1027F000816B00E02046BDE8F041084709E0204633
:10280000FFF77AFFBDE8F0812046FFF775FFE56727
:10281000F8E7C60209D55B0207D54FF480101062B5
:102820002046BDE8F041FFF766BF030605D50B065D
:1028300003D5616E0029DDD1E4E74006E2D5480604
:10284000E0D51168204621F0400111602021616728
:10285000656600F0CEF8D5E7200100040F300008CF
:1028600010B5040002D0606F10B107E0012010BD68
:10287000002084F87000204600F026F824206067CD
:102880002068016821F001010160204600F0D8FBBA
:102890000128ECD0606A10B1204600F028FB2068C7
:1028A000416821F4904141602068816821F02A014B
:1028B00081602068016841F0010101602046BDE8A7
:1028C000104000F078BB000010B586B0044614211B
:1028D0006846FDF7B2FC17492068884227D11648A0
:1028E000816D41F400318165816D01F40031059104
:1028F000C16C41F00101C164C06C694600F0010087
:1029000005900C20009002200190002002900320EE
:102910000390072004904FF09040FEF749FE0022FC
:1029200011462620FEF77AFF2620FEF769FF06B043
:1029300010BD000000440040001002402DE9F843A3
:102940000446406F1F4616460D4620284FD1CDB194
:10295000C6B194F87000012849D0012084F87000B5
:102960004FF00008C4F87C8021206067FEF7F2FE7B
:10297000A4F850608146A4F85260A068B0F5805F6A
:1029800003D004E00120BDE8F883206928B12E4679
:102990005FF0000584F8708010E00026FAE78021DF
:1029A000204600F03FFCB8B9C6B116F8010B21680B
:1029B0000885B4F85200401EA4F85200B4F8520042
:1029C0004B464FF0000200970028E8D14FF040013D
:1029D000204600F027FC30B10320D4E735F8020B85
:1029E000C0F30800E3E7202060670020CBE7022067
:1029F000C9E77047FEE700EB8100006E00F0F84089
:102A000070478068C0F3C00070478068C0F38000E2
:102A10007047C06810F4406F01D00020704701205B
:102A20007047042303EAD15310B518444369C1F336
:102A3000045107248C40A3438A401343436110BDD3
:102A400000EB8100016E21F00041114301667047E7
:102A500030B587B018216846FDF7EFFB14481349DD
:102A60000024C0E9001484600425C460C0E9044562
:102A7000047601214176C16180F820408462C462FD
:102A800080F83040446380F83840FEF783FA094804
:102A900000900620CDE901047F200594CDE90305CF
:102AA00069460348FDF77EFF07B030BD00000450C3
:102AB000200200200000214310B588B000241248F5
:102AC0000094019402940394049405944FF080417F
:102AD0000694016040F20941C0E901144FF4886195
:102AE000C0E903148461FFF757FC4FF48050009055
:102AF00069460548FFF7CAFC049404A902480694F5
:102B0000FFF714FC08B010BD8402002009480849F2
:102B100001604FF4E1314160002181600C22C1600D
:102B2000C0E904128161C16101624162FFF798BE90
:102B300000440040D0020020FEE7704770470000CC
:102B40002DE9F041444C05468846E068002681079F
:102B500028680DD0E16801F00301814216D1A8B1C7
:102B6000E0686968C0F30210401C88420ED120E082
:102B7000012804D0022805D0032807D108E02168E5
:102B8000890701E021684905002907DB01265FE08C
:102B90002168890302D421684903F5E7E1686A687E
:102BA0006FF00F0321F0730103EB02121143014395
:102BB000E160206820F080602060FEF7CBFD0746D2
:102BC00005E000BFFEF7C6FDC01B022837D820680D
:102BD0000001F7D4B8F1000F18D0B8F1010F1DD0E3
:102BE000287D4FF07E41400801EB4060A96840EA33
:102BF00001202169194A114008432061206840F0F2
:102C000080602060FEF7A6FD07461AE0A868297BD1
:102C1000000240EAC1602169114AECE7288A1149A3
:102C2000400801EB4050A96840EA012021690E4AA2
:102C3000E1E700BFFEF78EFDC01B022801D9032685
:102C400006E020680001F5D52069A96908432061E4
:102C50003046BDE8F081000000100240FF80FFF91F
:102C6000FF80FF070000E0FFFF809FFFF8B51C4DCD
:102C700006460024A86DC00002D5FEF735FE0DE023
:102C8000A86D40F08050A865A86D00F080500090BD
:102C9000FEF72AFEA96D21F08051A965B0F5007FED
:102CA00004D0802E07D94FF003040AE0802E08D903
:102CB000A02E01D804E001D1022402E0702E00D140
:102CC00001240848016821F00701214301600068E0
:102CD00000F00700A04201D00120F8BD0020F8BD9F
:102CE00000100240002002407047FEF739BDF0B5E9
:102CF000ABB0442115A8FDF7A0FA142126A8FDF7D2
:102D00009CFA54216846FDF798FA1020159060202F
:102D10001D90012400250226CDE91B45CDE91F6445
:102D20000727CDE9237624202596CDE9214015A853
:102D3000FFF72EF80F2026900320CDE927052995CF
:102D4000042126A82A95FEF71DFF44F202000090F8
:102D5000C00612901220CDE9024009950194049713
:102D60000820CDE90560400507906846FEF7C4FDE0
:102D70006002FEF785FD2BB0F0BD00000D48016834
:102D800041F4700101600C48016841F001010160EB
:102D9000002181600268094B1A4002608214C260FF
:102DA000026822F48022026081610249C0038039F6
:102DB0000860704788ED00E000100240FFFFF6EA6F
:102DC0000F4830B4048810480E4A017802EBC11550
:102DD0000E4A137825F813405B1CDCB200231470F4
:102DE000402C05D11370491C094A01700121117052
:102DF0000178042900D1037030BC0648FFF7B5BB49
:102E00000400002020000020000000200800002016
:102E1000010000208402002070B50268164B4FF0BC
:102E20008046984201D0B04203D122F070044A6833
:102E30002243124C124D984205D0B04203D0A0421A
:102E400001D0A84203D122F44076CA6832434E69C9
:102E500022F08002324302608A68C2620A6882629B
:102E6000984203D0A04201D0A84201D10969016370
:102E70000121416170BD0000002C01400040014073
:102E80000044014010B5846842EA032224F47F44E0
:102E90000A432243826010BD826822F070020A4316
:102EA00042F007018160704710B5036A046A24F09C
:102EB00001040462846924F0F00444EA021423F05B
:102EC0000A020A438461026210BD10B5036A23F04E
:102ED000100303628369046A23F4704343EA0232F5
:102EE00024F0A00343EA01118261016210BD90F851
:102EF0002410C90706D001684A68836A22F40032A8
:102F00001A434A6090F82410890706D501684A6878
:102F1000C36A22F480321A434A6090F824104907A9
:102F200006D501684A68036B22F480221A434A607E
:102F300090F82410090706D501684A68436B22F40B
:102F400000421A434A6090F82410C90606D5016869
:102F50008A68836B22F480521A438A6090F82410A6
:102F6000890606D501688A68C36B22F400521A43A9
:102F70008A6090F82410490611D501684A68036CEC
:102F800022F480121A434A60016CB1F5801F06D109
:102F900001684A68436C22F4C0021A434A6090F800
:102FA0002410090606D501684A68806C22F40022C4
:102FB00002434A607047F8B500260446C667FEF72C
:102FC000C9FB0546206800686FF07E47000708D5FA
:102FD0002B4600224FF400112046009700F022F902
:102FE00060B92068006840070AD52B4600224FF4DC
:102FF00080012046009700F015F908B10320F8BDC4
:1030000020206067A06784F870600020F8BD10B5CC
:10301000806A0021A0F85A10A0F85210FFF76CFB4C
:1030200010BD01680A6822F490720A6001688A681B
:1030300022F001028A602021816700210166704729
:103040002DE9F0410446016880682269E369104374
:10305000626900251A4310436B4F0A686B4B1A4094
:1030600002430A6020684168E26821F4405111433C
:1030700041602168A069B94201D0226A10438A6880
:1030800022F4306202438A606149236861488B42BE
:103090000DD1D0F8880010F0030006D0012838D0F8
:1030A000022834D0032821D135E001211FE05A49FC
:1030B0008B420BD1D0F8880010F00C0025D00428EA
:1030C00027D0082823D00C2810D124E0BB420DD1F2
:1030D000D0F8880010F4406017D0B0F5806F18D099
:1030E000B0F5006F13D0B0F5406F14D010214B48ED
:1030F00000264FF40042BB422FD171B1022912D0F9
:1031000004290DD0082973D125E00021EFE7022121
:10311000EDE70421EBE70821E9E7FEF7C3FD01E055
:10312000FEF7E4FDF0B3626802EB420181425FD832
:10313000B0EB023F5CD8010E000273084FEA320781
:10314000C01959410023FDF73DF8354AA0F54071FB
:10315000914251D94CE01046E5E7E3694FF6EF772D
:10316000934229D1092943D2DFE801F005080E4234
:103170000B4242422400FEF795FD04E0FEF7A4FD59
:1031800001E0FEF7B3FD68B14100606801EB50015A
:10319000B1FBF0F080B2A0F11001B94228D84FF68F
:1031A000F07100E02AE00140C0F3420001432068D2
:1031B000C16023E01046E7E7092919D2DFE801F0F2
:1031C00005080E180B1818181A00FEF76BFD04E01E
:1031D000FEF77AFD01E0FEF789FD78B1616800EB4A
:1031E0005100B0FBF1F080B2A0F11001B94203D957
:1031F000012503E01046F1E72168C86026662846ED
:103200006666BDE8F081000000800040F369FFEFD2
:103210000038014000100240004400400024F40047
:10322000FFFC0F002DE9F0479A4617460E4604466C
:103230004FF000094FF02008089D39E0681C37D096
:10324000FEF788FAA0EB0A00A84222D80DB3206846
:10325000016849072CD5C069C043000528D42168FE
:103260004FF4006008622068016821F4D0710160A9
:103270002068816821F001018160C4F87480C4F87D
:103280007880C4F87C8000BF84F870900320BDE88B
:10329000F0872068016821F4D0710160206881689E
:1032A00021F001018160C4F87480C4F87880EBE7F4
:1032B0002068C06936EA000004D00020B842BDD0C2
:1032C0000020E4E70120F9E70148FFF717BA000002
:1032D000D0020020FEE703B401984100009850EAB4
:1032E000C12018BF04204A0D18BF40F0010040F271
:1032F000FF72B2EB515F08BF40F00200012808BF27
:10330000052002B070470907090E002804DB00F110
:10331000E02080F80014704700F00F0000F1E0207A
:1033200080F8141D704700002DE9F0412DED020BCF
:103330009FED3D0B2DED028B9FED3D8BDDE90254A2
:10334000C4F30A50A0F2FF36142E37DA002E18DA32
:1033500053EC102B9DED020B51EC100BFDF79AF87E
:1033600053EC182BFDF7EAF957D2002CA4BF002428
:10337000254652DA24F00040284318BF2E4C4CD08A
:103380001AE02E4820FA06F704EA070028431FD067
:1033900053EC102B9DED020B51EC100BFDF77AF85E
:1033A00053EC182BFDF7CAF937D2002C03DA4FF48F
:1033B0008010F0400444BC4300252EE0332E07DC8F
:1033C000A6F114004FF0FF3121FA00F73D4206D17B
:1033D0009DED020BBDEC028B02B0BDE8F08153EC19
:1033E000102B9DED020B51EC100BFDF7F7F853EC91
:1033F000182BFDF7A3F910D2002C0DDA142E08BFFC
:10340000641C09D0C6F13400012101FA00F02844FF
:10341000A84238BF641C0546BD43CDE902549DED6A
:10342000020BD7E7000000009C7500883CE4377E63
:1034300000000000000000000000F0BFFFFF0F00D0
:1034400070B5D94B00242DED020B2DED108BDDE96D
:103450001010984205DA20F000429A4201D809D1B2
:1034600041B19DED100B00F0CDB902B0BDE8704048
:1034700001F0AEB8B0F5801F26DA11430BD000285A
:1034800013DA012001F0F8F800F0C2B902B0BDE88B
:10349000704001F0B1B8022001F0EEF801F080F8C0
:1034A00051EC100B81F000419EE06FF035049FED70
:1034B000C00B53EC102B9DED100B51EC100BFDF7D6
:1034C00098F8CDE91001084604EB2051C0F313042D
:1034D000B948A1F2FF31204400F4801080F07F62EF
:1034E00082F04052224301EB20559FEDB50B119223
:1034F00053EC102B9DED100B51EC100BFDF76BF8FE
:1035000041EC180BA01CC0F313009FEDAFDB9FED47
:10351000B0EBB14E7E4403286CD296ED000B51EC1B
:10352000180B53EC102BFDF7F1F81DD1002D01BF46
:1035300096ED000BBDEC108B02B070BD2846FCF779
:10354000FDFE41EC180B53EC1D2BFDF752F841EC3E
:10355000190B53EC1E2B51EC180BFDF74AF853ECEA
:10356000192BFCF797FF3FE09FED9D0B51EC180BDB
:1035700053EC102BFDF73DF89FED9B1B53EC112BEB
:10358000FDF72CF841EC190B53EC182B51EC180BF0
:10359000FDF72FF853EC192BFDF72BF841EC190B25
:1035A000002D04BF53EC192B51EC180B1AD02846F0
:1035B000FCF7C4FE41EC1A0B53EC1D2BFDF719F878
:1035C00053EC192BFDF70AF853EC182BFDF703F811
:1035D00041EC180B53EC1E2B51EC1A0BFDF709F8BC
:1035E00053EC182BFCF7F7FF00F018B902B041ECD0
:1035F000100B70BD9FED7E0B51EC180B53EC102B94
:10360000FCF748FF41EC100B51EC180B53EC102B5E
:10361000FCF725FE41EC190B2846FCF78FFE41EC28
:103620001B0B53EC192B51EC190BFCF7E2FF41EC8F
:103630001A0B714853EC1A2B261851EC1A0BFCF795
:10364000D8FF41EC1F0B6D48C4F1510404F5D72499
:10365000B0EE4F0AF0EE6F0A0321784400F024FF29
:1036600053EC1F2B51EC100BFCF7C3FF41EC1C0B70
:103670006348B0EE4F0AF0EE6F0A0421784400F080
:1036800013FF53EC1A2B51EC100BFCF7B2FF344331
:1036900053EC1C2BFCF7FEFE41EC1C0B002C4CDD0C
:1036A0009FED510B51EC180B53EC102BFCF7A1FFC5
:1036B00053EC182BFCF79DFF41EC1A0B55B353EC60
:1036C0001D2B51EC1B0BFCF794FF41EC1D0B53EC35
:1036D0001C2B51EC1A0BFCF7DDFE53EC192BFCF7FD
:1036E00088FF53EC1D2BFCF7D5FE53EC1A2BFCF78F
:1036F00075FF53EC182BFCF76EFF41EC180B53ECE5
:103700001E2B51EC1B0BFCF774FF53EC182BFCF732
:1037100062FF69E753EC1C2B51EC1A0BFCF7BAFE65
:1037200053EC192BFCF765FF53EC1A2BFCF756FFF3
:1037300053EC182BFCF752FF56E735B353EC1D2B17
:1037400051EC1B0BFCF755FF41EC1A0B53EC1C2BF7
:1037500051EC180BFCF73FFF53EC192BFCF749FF1A
:1037600053EC1A2BFCF737FF53EC182BFCF733FF05
:1037700041EC180B53EC1E2B51EC1B0BFCF739FFE3
:1037800053EC182BFCF727FF2EE753EC1C2B51ECC6
:10379000180BFCF720FF53EC192BFCF72AFF53EC16
:1037A000182BFCF71BFF1FE70000F07F0000000054
:1037B0000000000000005043645F090000000000AA
:1037C000000000000000F03F763C7935EF39EA3D1B
:1037D0000000E0FE422EE63FE8140000000000007A
:1037E000555555555555D53F000000000000E03FA8
:1037F000000000000000004086EBF9FFE21200002C
:10380000D8120000BDEC088BBDEC08CBFFF72DBE35
:10381000BDEC088BBDEC08CBFFF738BEBDEC088BC8
:10382000BDEC08CBFFF7E2BE2DE9F04D2DED040B0A
:103830002DED0E8B96B0DDE92550279CDDF890A08C
:1038400025F0004624F00048BAF1000F14BF012112
:10385000002101EB4502FC4953184A1093422AD338
:10386000002814BF0123002303EB44030B44F74952
:103870008B4220D358EA00019FEDF59B76D0DFF80C
:10388000D8B35D4503D1BAF1000F05D188E0BAF194
:10389000000F08BF002100D0012101EB450111F507
:1038A000001F08D8002814BF0121002101EB4401AA
:1038B00011F5001F0BD99DED261B9DED240B16B0B5
:1038C00000F0DABD04B0BDE8F04D00F08BBE00277B
:1038D000002DBCBFE149884521DAE1498845A8BFF0
:1038E00002271CDAC3451ADCDE4901EB28511429F2
:1038F00008DDC1F1340220FA02F101FA02F282423B
:103900000DD108E058B9C1F1140228FA02F101FA08
:1039100002F2424503D101F00101C1F1020756EA6A
:103920000A0124D1002C22DA002D18BF022F01D069
:10393000012F0AD0022000F09FFE16B000F0A2BDB9
:1039400004B0BDE8F04D00F02BBE022000F094FE64
:1039500000F026FE51EC100B81F0004141EC100B01
:1039600016B000F095BD04B0BDE8F08D18E09FEDF5
:10397000BEAB9FEDBF8B002871D1B848804522D1E6
:1039800005F1804010F5801008BFBAF1000F07D094
:10399000B3450ADC002CA8BF9DED260BE0DA0DE054
:1039A000B0EE490AF0EE690ADAE7002C06DA9DED7E
:1039B000260B51EC100B81F000416FE0AE487844CB
:1039C00090ED000BCCE7D8454DD1002C48DA2EB154
:1039D00086423AD1BAF1000F42D126E0BAF1000F87
:1039E00013D0022000F048FE00F016FE8DED020B11
:1039F0009DED240B8DED000B10EE900A039961F301
:103A00001E0003909DED020BAAE78DED02AB9DED2C
:103A1000240B1AEE901A10EE900A8DED000B61F354
:103A20001E0003909DED020B9AE78DED028B9DED3C
:103A3000240B18EE901A10EE900A8DED000B61F336
:103A40001E0003909DED020B8AE709DA9DED240B21
:103A500051EC190B53EC102BFCF701FC1EE020E09D
:103A60009DED240B7CE786421BDAB4F1804F0DD02C
:103A7000A4F10050B0F1FF5013D1002D11DB9DEDEA
:103A8000240B51EC100B00F0FFFE07E09DED240B22
:103A900053EC102B51EC100B00F0C2BC41EC100B9E
:103AA0005EE79DED240B51EC100B00F0EBFDBAF13D
:103AB000000FCDE90E0142D19FED710B46B3A6F187
:103AC000E040B0F17F600CD05E4538D1002D00DAC7
:103AD000A7B3022F0CBF01204FF0FF30FCF72EFCE4
:103AE000DCE7002D01DD002C0DDA002D01DD002CBE
:103AF0001FDB002D16DA002C14DB012F08BF9FED11
:103B0000620B3FF42DAFB0EE4A0AF0EE6A0A27E7E7
:103B1000022F18BF002D0CD0012F0AD1002DFFF667
:103B20001FAF06E0002DB8BF002C08DA012F3FF4CC
:103B300017AFB0EE480AF0EE680A11E71BE001206B
:103B400000EBE57050EA070115D0791EB0EE498A06
:103B5000F0EE698A084308BF9FED4D8B4E48002563
:103B6000804570DD4D494E48884514DDB0420DDB7F
:103B7000002C19DB2FE0012000F07EFD16B000F0D4
:103B80008DBC04B0BDE8F04D00F036BDB34502DC9D
:103B9000002C09DC1FE0864202DA002C1BDA03E06D
:103BA0005E452BDD002C16DD022000F065FD00F0E7
:103BB00033FD8DED020B53EC1A2B51EC180BFCF777
:103BC00018FDCDE900010399019861F31E000390EF
:103BD0009DED020BC4E6022000F04EFD00F02CFD2E
:103BE00010EE901A18EE900A8DED020B8DED008B01
:103BF00061F31E0003909DED020BB1E69DED0E0BEF
:103C000053EC192B51EC100BFCF7E5FC9FED260B48
:103C1000CDE9080153EC102B9DED080B51EC100B76
:103C2000FCF7E7FC9FED221B53EC112BFCF7D6FCB5
:103C30009DED081B53EC112BFCF7DBFC9FED1E1BCD
:103C400053EC112B3CE08CE0FFFF1F00FFFF0F0047
:103C5000000000000000F03F0000F03F0000F07F97
:103C60000000404301FCFFFF000000000000F07F67
:103C700000000000000000003E10000000000000F6
:103C80000000000000000080000000000000F0FFC5
:103C9000000000000000F0BF0000E0410000F04321
:103CA000FFFFEF3F00000000000000000000D03FD9
:103CB000555555555555D53F000000000000E03FD3
:103CC000FCF78CFC9DED080B41EC1A0B53EC102B10
:103CD00051EC100BFCF78DFC53EC1A2BFCF789FC14
:103CE00041EC1A0B9FEDFE0B53EC102B9DED080BD6
:103CF00051EC100BFCF77DFC41EC1B0B9FEDFA0B1C
:103D000051EC1A0B53EC102BFCF773FC41EC1A0B23
:103D10009FEDF70B53EC102B9DED080B51EC100BA6
:103D2000FCF767FC53EC1A2BFCF755FC41EC1A0B23
:103D300051EC1B0B53EC1A2BFCF7ACFB0690CDE9B6
:103D400006519DED060B53EC1B2B51EC100BFCF7B1
:103D500042FC53EC1A2BFCF741FC41EC100B00F039
:103D6000A1B90020B6F5801F0EDA9FEDE30B53ECEE
:103D7000102B9DED0E0B51EC100BFCF73AFCCDE92E
:103D80000E016FF034000E4600EB2650A0F2FF3714
:103D9000C6F31300DA4940F07F6646F04056884289
:103DA000D8BF002408DDD7498142C8BF012403DC05
:103DB0000024A6F580167F1CD348784400EBC4008D
:103DC0000F9690ED00CB9DED0E0B53EC1C2B51ECA0
:103DD000100BFCF700FC9DED0E0B41EC1B0B53ECA4
:103DE0001C2B51EC100BFCF755FB41EC100B51EC6C
:103DF000190B53EC102BFCF732FA41EC1D0B51EC74
:103E00001B0B53EC1D2BFCF7F4FB41EC1A0BBF48CA
:103E10008DED10AB7844109590ED000B4FF00050F5
:103E200040EA660000EB84408DED080B00F50020B1
:103E300009909DED080B53EC1C2B51EC100BFCF77B
:103E4000CAFB9DED0E1B53EC112BFCF7C7FB41EC9D
:103E5000100B53EC102B9DED100B51EC100BFCF7DD
:103E6000C8FB9DED080B41EC1C0B53EC102B9DED9A
:103E7000100B51EC100BFCF7BCFB53EC1B2BFCF7AD
:103E8000ADFB53EC1C2BFCF7A6FB53EC1D2BFCF7F6
:103E9000B0FB41EC1C0B53EC1A2B51EC1A0BFCF74A
:103EA000A8FB41EC1B0B9A480621B0EE4B0AF0EE42
:103EB0006B0A784400F0F8FAB0EE401AF0EE601A9F
:103EC000B0EE41DAF0EE61DA53EC1B2B51EC1B0B38
:103ED000FCF78FFB53EC1D2BFCF78BFB9DED100BC0
:103EE00041EC1B0B53EC1A2B51EC100BFCF7D2FAE4
:103EF00053EC1C2BFCF77DFB53EC1B2BFCF7CAFA95
:103F00009DED100B41EC1B0B53EC102B51EC100BE7
:103F1000FCF76FFB41EC1D0B9FED7FEB53EC1E2B71
:103F2000FCF7B8FA53EC1B2BFCF7B4FA0890CDE978
:103F300008519DED080B53EC1E2B51EC100BFCF7B8
:103F40004AFB53EC1D2BFCF746FB53EC1B2BFCF7F9
:103F500045FB9DED080B41EC1D0B53EC102B9DED2B
:103F6000100B51EC100BFCF744FB41EC1B0B53EC1A
:103F70001A2B51EC1D0BFCF73CFB9DED080B41ECA3
:103F80001A0B53EC102B51EC1C0BFCF732FB53ECCF
:103F90001A2BFCF77FFA41EC1A0B51EC1B0B53EC7C
:103FA0001A2BFCF777FA0C90CDE90C519DED0C0B18
:103FB00053EC1B2B51EC100BFCF70DFB53EC1A2BA5
:103FC000FCF70CFB41EC1B0B9FED550B53EC102B3E
:103FD0009DED0C0B51EC100BFCF70BFB41EC1A0B9D
:103FE0009FED510B51EC1B0B53EC102BFCF701FB1D
:103FF00041EC1B0B9FED4E0B53EC102B9DED0C0B6E
:1040000051EC100BFCF7F5FA53EC1B2BFCF742FAC2
:1040100041EC100B4848784400EBC40090ED001BC5
:1040200051EC100B53EC112BFCF734FA41EC1B0B49
:104030003846FCF783F9CDE9080153EC1B2B51EC12
:104040001A0BFCF727FA41EC100B3C48784400EBC4
:10405000C40090ED00CB51EC100B53EC1C2BFCF783
:1040600019FA9DED081B53EC112BFCF713FA06907F
:10407000CDE906519DED080B53EC102B9DED060B81
:1040800051EC100BFCF7A7FA53EC1C2BFCF7A3FA2E
:1040900053EC1A2BFCF79FFA53EC1B2BFCF79EFA00
:1040A00041EC100B9DED261B53EC102B8DED001BEE
:1040B00000959DED260B51EC100BFCF79AFA9DED47
:1040C000000B41EC1A0B53EC102B9DED260B51EC21
:1040D000100BFCF780FA9DED061B53EC112B2FE023
:1040E000000000604715F73FFE822B654715F73F3C
:1040F00044DF5DF80BAE543E00000000000040437A
:104100008E9803007AB60B00BA0B0000E80B000093
:10411000F20A00000000000000000000000008405B
:10412000000000E009C7EE3FFD033ADC09C7EE3F9F
:10413000F5015B14E02F3EBE7E0900003809000047
:10414000FCF757FA53EC1A2BFCF7A4F99DED060B7C
:1041500041EC1A0B53EC102B9DED000B51EC100BA6
:10416000FCF747FACDE90C019DED0C0B51EC1A0B55
:1041700053EC102BFCF78EF9CDE902010C46AA494D
:104180008C422FDB611A084318D19DED0C0B53ECC8
:10419000102B9DED020B51EC100BFCF71CFA41ECBF
:1041A0001B0B9FEDA30B51EC1A0B53EC102BFCF7E0
:1041B00071F953EC1B2BFCF7C1FA2DD2022000F051
:1041C0005BFA00F029FA10EE901A18EE900A8DEDC5
:1041D000020B8DED008B61F31E0003909DED020B31
:1041E000FFF7BEBB944A24F00041914214D3934997
:1041F000214408437FF4EFAC9DED0C0B53EC102BE6
:104200009DED020B51EC100BFCF7E5F953EC1A2B6A
:10421000FCF794FA7FF6DFAC24F000408849894A25
:10422000002601EB205182422BDA481C4FF480110A
:1042300021FA00F02044844AC0F30A517A44A1F2E2
:10424000FF3192ED000B814A8DED080BCA4020EA48
:104250000202C0F3130040F48010C1F1140120FAEF
:1042600001F60992002CB8BF76429DED080B53EC85
:10427000102B9DED0C0B51EC100BFCF7ACF9CDE9BC
:104280000C019DED0C0B51EC1A0B53EC102BFCF7B1
:1042900001F99FED6F0B0890CDE9085153EC102BFD
:1042A0009DED080B51EC100BFCF7A3F941EC1B0B37
:1042B0009FED690B53EC102B9DED080B51EC100B8F
:1042C000FCF797F99DED0C0B41EC1C0B53EC102BFC
:1042D0009DED080B51EC100BFCF77DF953EC1A2BFC
:1042E000FCF77CF99FED5E1B53EC112BFCF781F979
:1042F00053EC1C2BFCF7CEF841EC1A0B51EC1B0BCA
:1043000053EC1A2BFCF7C6F8CDE902019DED020B28
:1043100053EC1B2B51EC100BFCF75DF953EC1A2BF3
:10432000FCF75CF99DED020B41EC1A0B53EC102BE2
:1043300051EC100BFCF75DF9CDE908014A489DED01
:10434000080B0521784400F0AFF89DED081B51ECF7
:10435000100B53EC112BFCF74CF99DED021B53ECA9
:10436000112BFCF73BF9CDE906019DED020B53EC57
:104370001A2B51EC100BFCF73CF953EC1A2BFCF701
:1043800089F89FED3B0B41EC1A0B53EC102B9DED84
:10439000060B51EC100BFCF71EF99DED060B41ECE2
:1043A0001B0B53EC102B9DED020B51EC100BFCF78B
:1043B00020F953EC1B2BFBF752FF53EC1A2BFCF7A5
:1043C0000AF99DED021B53EC112BFCF704F953EC99
:1043D000192BFCF703F9CDE9020101EB0650011599
:1043E0000029C8BF039015DC9DED020B324651EC4D
:1043F000100BFCF773F9FEF76EFF042808BF00F0FE
:104400001BF932469DED020B51EC100BFCF766F9DF
:10441000CDE902019DED020B51EC180B53EC102B72
:10442000FCF7E7F8FFF73ABB0000904000000000FF
:10443000FE822B654715973C00CC904000346F3FBF
:1044400001FCFFFF0000E03FC0070000FFFF0F007E
:1044500000000000432EE63F396CA80C615C20BED2
:10446000EF39FAFE422EE63F900600000000000001
:104470000000000000000040BDEC088BBDEC06CB46
:10448000FFF720BABDEC088BBDEC06CBFFF758BA9E
:10449000BDEC088BBDEC06CBFFF765BABDEC088B15
:1044A000BDEC06CBFFF76DBB70B504462DED028B5E
:1044B0004D1E00EBC500B0EE408AF0EE608A90ED34
:1044C000000B35F0060017D053EC182B51EC100BF5
:1044D000FCF78FF841EC100B6D1E04EBC50090ED5E
:1044E000001B51EC100B53EC112BFBF7D3FF41ECED
:1044F000100B35F00600E7D1022D36D0042D1CD06C
:10450000062D1CBFBDEC028B70BD53EC182B51EC7B
:10451000100BFCF76EF894ED0A1B53EC112BFBF714
:10452000B9FF53EC182BFCF764F894ED081B53EC1F
:10453000112BFBF7AFFF41EC100B53EC182B51EC98
:10454000100BFCF756F894ED061B53EC112BFBF700
:10455000A1FF53EC182BFCF74CF894ED040B53EC33
:10456000102BFBF797FF41EC100B53EC182B51EC81
:10457000100BFCF73EF894ED021B53EC112BFBF7EC
:1045800089FF53EC182BFCF734F894ED001B53EC27
:10459000112BFBF77FFFBDEC028B41EC100B70BDC4
:1045A0009FED070B10B553EC102B9FED070B51EC53
:1045B000100BFBF754FE41EC100B10BD0000000087
:1045C0000000000000000000000000000000F03FBC
:1045D00010B553EC102B51EC100BFBF75BFF41ECCB
:1045E000100B10BD10B553EC112B51EC100BFBF759
:1045F00051FF41EC100B10BD9FED050B10B553ECB6
:10460000102B51EC100BFBF72AFE41EC100B10BDE8
:1046100000000000000000009FED050B10B553ECFA
:10462000102B51EC100BFBF7E4FF41EC100B10BD0D
:1046300000000000000000709FED050B10B553EC6A
:10464000102B51EC100BFBF7D4FF41EC100B10BDFD
:10465000000000000000001002E008C8121F08C19E
:10466000002AFAD170477047002001E001C1121FF3
:10467000002AFBD170470000014908607047000024
:104680001C00002082B0CDE9000121F00040019023
:104690009DED000B02B051EC100B70472DE9F04777
:1046A0004FF000042DED028B0E46051EA04609D0EA
:1046B0004FF0000711DA0A2A0AD00020BDEC028B65
:1046C000BDE8F0873020307086F801800846F5E7B5
:1046D00001272D2030703C466D421046FBF72EFE20
:1046E0008A4681464AEC100BFEF7AAFEB0EE401A4D
:1046F000F0EE601AB0EE418AF0EE618A2846FBF7D0
:104700001DFE41EC100BFEF79BFE53EC182B51ECF9
:10471000100BFBF7A4FD41EC100BFEF705FE51EC6E
:10472000100BFBF71CFE07447F1C15E0381B401ED6
:10473000FBF704FE41EC110B4AEC109BFFF774F8F9
:1047400051EC100BFBF70BFE95FBF0F202F1300180
:10475000315500FB1255641CBC42E7DB06F80480AF
:104760003046ABE7D8B0FDF703F8FEF7C0FA424891
:10477000C16C41F00101C164C16C01F00101009103
:10478000C16C41F00201C164C16C01F002010091F1
:10479000816C41F001018164806C002200F0010015
:1047A000009011460B20FDF739F80B20FDF728F893
:1047B000FEF74EF9FEF780F9FEF7A8F92F480068DA
:1047C000016821F0200101602C4801222C49B038F9
:1047D000FCF708FD2A4C4FF0FF33241F0422274822
:1047E0006168FEF7ABF82548B038FCF755FD234863
:1047F0004C38FDF71FFE4FF400712248FBF71DFDFA
:10480000A0466D461D4801221D49B038FCF7EAFC60
:1048100098F8010044460028F4D0002060704FF45E
:10482000B0716846FBF709FD2078A0B90024154E49
:104830003B276846FBF70CFD411906EB44000A22B2
:10484000B0F88001FFF72AFF6846FBF701FD641C02
:104850002F54402CEDDB6846FBF7FAFC28440A2174
:1048600000F8011C6846FBF7F3FC82B2642369463A
:104870000248FEF763F8C5E700100240D0020020AE
:10488000040000202000002000B52DED048B83B033
:1048900041EC190BFBF78EFF41EC180B18EE100AD8
:1048A00018EE901A8DED008B002818BF01200843E8
:1048B00020F00040C0F17F6000F1E040C00F14D054
:1048C00019EE101A19EE900A8DED009B002918BF01
:1048D0000121084320F00040C0F17F6000F1E0407A
:1048E000C00F04BF0120FFF7C7FE51EC180B03B047
:1048F000BDEC048B00BD00000000000000000000C3
:104900000102030406070809A0860100400D030008
:10491000801A060000350C0040420F0080841E0003
:1049200000093D0000127A000024F40000366E01F8
:104930000048E801006CDC020000000001020304F2
:1049400004FA97999999D93FAF788E1DC571CC3FDC
:104950009FC678D0099AC33F935555555555E53FA5
:10496000599322942449D23FDE03CB966446C73F35
:1049700044523EDF12F1C23F000000000000F03F51
:10498000000000000000F83F0000000000000000F0
:104990000000004003B8E23F0000000000000000FB
:1049A00006D0CF43EBFD4C3E033333333333E33F89
:1049B000FFAB6FDBB66DDB3F4D268F515555D53FB5
:1049C00001411DA96074D13F65DBC9934A86CD3F83
:1049D000EF4E454A287ECA3F3E5555555555C53F71
:1049E00093BDBE166CC166BF2CDE25AF6A56113F63
:1049F000F16BD2C541BDBBBED0A4BE726937663E65
:104A00000000000000000000284A0008000000200C
:104A10002000000058460008484A000820000020F6
:104A20007807000068460008000000000000000051
:104A30000000000001000000100000000000000065
:084A400000093D000000000028
:040000050800018D61
:00000001FF
