:020000040800F2
:10000000B0080020A101000827240008DF22000812
:1000100025240008ED030008BD2B000800000000A7
:10002000000000000000000000000000D5250008CE
:100030002B0400080000000029240008D725000830
:10004000BB010008BB010008BB010008BB010008A0
:10005000BB010008BB010008BB010008BB01000890
:10006000BB010008BB010008BB010008F103000848
:10007000BB010008BB010008BB010008BB01000870
:10008000BB010008BB010008ED020008BB0100082D
:10009000BB010008BB010008BB010008BB01000850
:1000A000BB010008BB010008BB010008BB01000840
:1000B000C12600080000000000000000BB0100088D
:1000C000BB0100080000000000000000BB010008A8
:1000D00000000000BB010008BB0100080000000098
:1000E000BB010008BB010008000000000000000088
:1000F0000000000000000000000000000000000000
:10010000000000000000000000000000BB0100082B
:100110000000000000000000BB010008BB01000857
:10012000BB010008BB010008BB010008BB010008BF
:10013000BB010008000000000000000000000000FB
:10014000BB010008BB010008BB010008BB0100089F
:10015000BB010008BB010008BB010008BB0100088F
:10016000BB010008BB010008BB0100080000000043
:10017000BB010008BB0100080000000000000000F7
:10018000BB010008BB010008BB010008DFF80CD070
:1001900000F09AF8004800478D2D0008B0080020B4
:1001A0000648804706480047FEE7FEE7FEE7FEE711
:1001B000FEE7FEE7FEE7FEE7FEE7FEE77D26000836
:1001C0008D0100082DE9F05F0546002092469B4610
:1001D00088460646814640241BE02846414647465D
:1001E000224600F061F853465A46C01A914110D396
:1001F00011461846224600F048F82D1A67EB010810
:100200004F4622460120002100F03FF817EB00097D
:100210004E41201EA4F10104DFDC484631462A4647
:10022000434600F000B830BCBDE8C09FD2B201E048
:1002300000F8012B491EFBD270470022F6E710B5EB
:1002400013460A4604461946FFF7F0FF204610BD44
:10025000421C10F8011B0029FBD1801A704730B5F1
:100260000B46014600202022012409E021FA02F574
:100270009D4205D303FA02F5491B04FA02F528440E
:10028000151EA2F10102F1DC30BD202A04DB203A68
:1002900000FA02F1002070479140C2F1200320FAD9
:1002A00003F3194390407047202A04DB203A21FAD7
:1002B00002F00021704721FA02F3D040C2F120027F
:1002C0009140084319467047064C074D06E0E06828
:1002D00040F0010394E8070098471034AC42F6D38D
:1002E000FFF758FF5C2E00087C2E0008014800F044
:1002F0009FBA00003803002010B5846A616D11F0C8
:10030000500F06D0616DC90625D5204600F08FFA42
:1003100010BD606D40F400706065206801680907D9
:1003200016D501F0EBFF78B12068C0688004002882
:100330000ADB606D20F480706065606DC00403D4DA
:10034000606D40F001006065204600F06EFA10BD5F
:10035000C0688007EBE7E16C496BBDE810400847D7
:1003600010B5806A416D41F040014165816D41F0F9
:100370000401816500F05BFA10BD10B5806A00F0E1
:1003800055FA10BD70B504460068816811F0010F80
:1003900028D18168144A114215D18168D54329407A
:1003A000491C816000F0FAFE064616E0816811F0F3
:1003B000010F03D181682940491C816000F0EEFEE5
:1003C000801B022809D9606D40F010006065A06DA7
:1003D00040F00100A065012070BD20680168C9439C
:1003E000C907E3D1002070BD3F000080FEE7000098
:1003F000014800F00BBD00006804002030B590F803
:10040000444004F01C050124AC40056C6C60046899
:1004100063608368102B036803D099600068C26032
:1004200030BD9A600068C16030BD7047704770474A
:1004300070477047704770472DE9F84F0027044612
:10044000009790F85000DFF8B0930D46B8460128A9
:1004500011D0012684F85060206801F04BFF60B194
:10046000606D40F0200060655FF0010784F8508007
:10047000384600F0D7B90220FBE768680C2305284E
:1004800012D8022807D0032807D0042807D005284F
:1004900007D0062007E06B6006E0122003E018207A
:1004A00001E04FF480706860D5E90021206803EA1C
:1004B00091131844036B01F01F014FF01F0C0CFA4D
:1004C00001FCC2F3846223EA0C038A4013430363F2
:1004D000206801F00FFF8246206801F007FF5AEA0A
:1004E00000001DD1AA682968206801F00FFF20686C
:1004F0006969C268C2F3C102520091402A69042AA4
:100500000FD000EB82002B68026EDFF8F0C203F020
:10051000F84302EA0C020B431A4342F00041016621
:1005200072E0002101F0DCFE400320684FF0000182
:1005300072D001F0D5FE90FAA0F0B0FA80F12868F0
:1005400042036ED090FAA0F0B0FA80F0814204D15C
:1005500000221146206801F0E8FE0121206801F028
:10056000BFFE400320684FF001015DD001F0B8FEEE
:1005700090FAA0F0B0FA80F12868420359D090FABE
:10058000A0F0B0FA80F0814204D10022012120685D
:1005900001F0CBFE0221206801F0A2FE400320689A
:1005A0004FF0020148D001F09BFE90FAA0F0B0FAA3
:1005B00080F12868420344D090FAA0F0B0FA80F0AD
:1005C000814204D100220221206801F0AEFE032105
:1005D000206801F085FE400320684FF0030133D00E
:1005E00001F07EFE90FAA0F0B0FA80F12868420394
:1005F0002FD090FAA0F0B0FA80F0814204D100220E
:100600000321206801F091FE2068816811F0010F3C
:1006100022D0ACE000E004E001F062FEC0F38461AF
:100620008DE7C0F3846091E701F05AFEC0F3846166
:10063000A2E7C0F38460A6E701F052FEC0F3846134
:10064000B7E7C0F38460BBE701F04AFEC0F3846102
:10065000CCE7C0F38460D0E72A7B296850F8B03F2C
:10066000C1F3120C23EA0C0302F0180C644A22FABC
:100670000CF20A4013430360E968494577D12868C2
:1006800041031CD090FAA0F1B1FA81F1491C01F0AC
:100690001F0109294FEA403132D8002912D000BF8A
:1006A00090FAA0F1B1FA81F101F1010101F01F010D
:1006B00006FA01F609D100BFC0F3846109E0C0F376
:1006C0008461E3E7C0F38461EEE790FAA0F1B1FA48
:1006D00081F101F1010101F01F0146EA816102D1BE
:1006E000C0F3846003E090FAA0F0B0FA80F000F16B
:1006F000010000F01F0000EB400041EA005132E031
:1007000000290ED090FAA0F1B1FA81F101F10101B6
:1007100001F01F0106FA01F606D100BFC0F38461A3
:1007200006E0C0F38461F1E790FAA0F1B1FA81F13B
:1007300001F1010101F01F0146EA816102D1C0F31C
:10074000846003E090FAA0F0B0FA80F000F10100BC
:1007500000F01F002B4A00EB400002EB005041EA82
:10076000000141F00071AA68206801F0CFFD264821
:100770002A6802423FF47AAE24488168244D254B12
:1007800001F0E071AA421AD10D0218D422689A42EF
:100790007FF46CAE826841F4000122F0E0720A43FB
:1007A00082601D481D490068B0FBF1F000EB40007D
:1007B000800000E0401E00900028FBD156E6184D56
:1007C000AA4207D1CD0105D422689A42F6D141F060
:1007D00080710AE06FF00045EA42EFD14A02EDD4A1
:1007E00022689A42EAD141F48001826822F0E072E4
:1007F0000A4382603AE6000000007F4000F0FF03F9
:10080000FFFF0700000020FE0000088000030450E6
:10081000000052C70000045014000020400D0300E7
:10082000000084CB18BCBDE8E08F7047704770476C
:100830002DE9F0410446006806684568B0070ED50A
:10084000A8070CD5606DC00603D4606D40F400604D
:1008500060652046FFF7EBFD216802200860700705
:1008600001D5680703D4300724D5280722D5606D49
:10087000C00603D4606D40F400706065206801F02C
:100880003DFD88B12068C16889040DD4016809075D
:100890000AD501F02FFD50B3606D40F01000606587
:1008A000A06D40F00100A0652046FFF7BEFF216863
:1008B0000C200860B00601D5A80603D4700645D503
:1008C000680643D5606DC00603D4606D40F40050E7
:1008D00060652068C16C11F0C00F19D05FF000078F
:1008E00001F00CFD21680246C868C7B912E0206813
:1008F000416821F00C014160606D20F480706065FA
:10090000606DC004D0D4606D40F001006065CBE73D
:100910000127E5E7830113D492B1820410D40A6859
:1009200052060DD580020BD4084601F0DFFCE8B377
:10093000606D40F010006065A06D40F00100A065A2
:100940002046FFF775FD21686020086030060BD552
:10095000280609D5606D40F480306065204600F0BF
:1009600039F9216880200860F0050CD5E8050AD522
:10097000606D40F4003060652046FFF75BFD216844
:100980004FF480700860B0050CD5A8050AD5606DDD
:1009900040F4802060652046FFF74DFD21684FF44C
:1009A00000700860F00617D5E80600E029E013D5CE
:1009B000606B18B12068C068C0070AD0606D40F451
:1009C00080606065A06D40F00200A0652046FFF7E2
:1009D0002EFF216810200860700523D5680521D5F9
:1009E000606D40F480406065A06D40F00800A06537
:1009F00021684FF4806008602046BDE8F041FFF7B1
:100A000018BD2068416821F060014160606D20F4EC
:100A100080506065606DC00592D4606D40F001004B
:100A200060658DE7BDE8F081F8B54FF00005040082
:100A30002E46009502D0606D10B107E00120F8BD90
:100A4000204600F0C9F8A66584F8506020688168E7
:100A5000C1F3407119B18168564A11408160206824
:100A60008168C1F3007179B98168534A114041F03E
:100A700080518160514852490068B0FBF1F000E0BC
:100A8000401E00900028FBD120688168C1F30071EE
:100A900041B9616D41F010016165A16D41F0010145
:100AA000A165012501F026FC616DC90600D430B1B5
:100AB000606D40F01000606501252846F8BD606D4E
:100AC00020F4807040F0020060652068806810F0BB
:100AD000010F0BD13B48806810F0010F06D13A4856
:100AE0006168826822F47C120A438260E168606B6C
:100AF000627E0843A16841EA4231084394F820101D
:100B000040EA0140012904D1A18C304A02EB414165
:100B10000843A16A29B101F47071E26A014342EA13
:100B200001002168CA682A4B1A400243CA60206843
:100B300001F0E0FB0646206801F0D8FB304315D1F8
:100B4000207E94F83010800340EA41022068C1689A
:100B500044F2020399431143C16094F8380001281C
:100B60000CD02068016921F0010101612069012890
:100B70002068016B21F00F0111D013E0D4E90F01BF
:100B80000843D4E911121143084321680A6940F26D
:100B9000FC739A43104340F001000861E6E7E26904
:100BA000521E11430163606D20F0020040F001000D
:100BB000606582E7C0FFFF5FC0FFFF7F1400002079
:100BC000400D030000000450000304500000FEFF2D
:100BD00007C0F0FF7047000070B586B006461421CC
:100BE0006846FFF72AFB2049306888423AD11F49FE
:100BF000C86C40F40050C864C86C00F40050059004
:100C0000C86C40F00100C864C86C002500F0010009
:100C10000590012000900B20CDE9010569464FF0B9
:100C2000904000F0E9F9134C1148C4E90005802018
:100C3000A560C4E90350400060618000A0612020ED
:100C4000C4E90705204600F03FF908B1FFF7EEFBC5
:100C5000F464002211461220A66200F003FB122069
:100C600000F0F2FA06B070BD00000450001002401F
:100C7000080002406804002070B5044615460E4680
:100C8000006801F037FBE0BB94F85000012842D027
:100C9000012084F850002046FFF774FB002110B1BA
:100CA00084F8501070BD606D40F60162904340F4CE
:100CB00080706065606DC00404D5A06D20F00600F2
:100CC000A06500E0A165E26C1448D062E26C1448B3
:100CD0001063E26C1348506322681C20106084F893
:100CE00050102068416841F0100141602068C168DF
:100CF00041F00101C16021682B4632464031E06C71
:100D000000E008E000F040F921688A68064B1A40CC
:100D1000121D8A6070BD022070BD0000F90200083B
:100D20007B03000861030008C0FFFF7F10B5044685
:100D3000006801F0DFFA10B10221084610BD94F8F6
:100D4000500001280CD0012084F850002046FFF705
:100D500019FB01004FF0000004D084F85000ECE7CC
:100D6000022010BD626D40F601639A4342F4807226
:100D70006265626DD20404D5A26D22F00602A265FE
:100D800000E0A06523681C221A6084F850002068E7
:100D9000426822F01C0242606069082820684268AC
:100DA00002D042F0040201E042F008024260606BAF
:100DB00020B92068426842F0100242602068C26890
:100DC000920119D5626D22F4005242F4805262659C
:100DD0006269082A426807D022F040024260206817
:100DE000426842F0200206E022F0200242602068C1
:100DF000426842F04002426020688268024B1A401A
:100E0000121D826099E70000C0FFFF7FF0B4016C03
:100E10000C6801680D6890F8442002F01C0604225A
:100E200002FA06F3234211D06B070FD50B689B061D
:100E300003D40B6823F004030B6090F8441001F016
:100E40001C018A40016C4A60016B1DE0022303FA19
:100E500006F727424FF0000C4FF0010218D0AF0701
:100E600016D50C68A40605D40C6824F00A040C609E
:100E700080F8252090F8441001F01C018B40016C93
:100E80004B6080F824C0C16A00291AD0F0BC084722
:100E90000823B340234214D02B0712D50B6823F04C
:100EA0000E030B6090F84410036C01F01C0102FA71
:100EB00001F15960C26380F8252080F824C0416B9D
:100EC000E2E7F0BC7047000070B568B12B4C0368D6
:100ED00014212B4AA34209D22A4C1C44B4FBF1F141
:100EE0008900C0E910210BE0012070BD234C644251
:100EF0001C44B4FBF1F189004164204908390164C4
:100F0000022180F825101C6847F6F0718C43D0E967
:100F100002152943D0E904563543294385692943FD
:100F2000C5692943056A2943214319608168B1F5E0
:100F3000804F19D0036C0F21934202D152F8A83F81
:100F400002E00E4AA032136890F8444004F01C04FA
:100F5000A1408B43136090F84430416803F01C03B8
:100F600099401368194311600021C163012280F880
:100F7000252080F82410084670BD000008040240B7
:100F800000000240F8FFFDBF70B5044690F8240051
:100F9000002501280CD0012084F8240094F8256055
:100FA0000020012E06D084F824000225284670BDBA
:100FB000022070BD022684F82560E0632068066880
:100FC00026F0010606602046FFF718FA206B00287D
:100FD0002068016802D041F00E0106E021F0040112
:100FE00001602068016841F00A0101602068016821
:100FF00041F001010160D9E72DE9FC4FDFF880A144
:10100000002301250AF1040B03244FF00F0C0BF110
:10101000040EAEE005FA03F632406FD04F68012FA0
:1010200005D0022F03D0112F01D0122F17D1D0F8E5
:1010300008905F0004FA07F829EA08090097D1F838
:101040000C8008FA07F848EA0908C0F808804768E1
:10105000B7430E79C6F300169E403E434660C6680D
:101060004FEA430804FA08F7BE4301978F6807FA6E
:1010700008F73743C7604E68022E01D0122E13D1F5
:10108000DE0800EB86060096366A5F07FF0E0CFA54
:1010900007F926EA0906D1F8109009FA07F949EA92
:1010A0000609009EC6F820900768019EB7430E7996
:1010B00006F0030606FA08F63E4306604E68F600A0
:1010C00056D5304E376E47F001073766366E23F03F
:1010D000030706F0010600962B4E3E44B146B66863
:1010E0009F074FEA17780CFA08F7BE43B0F1904F0C
:1010F00005D0264FB84204D1012708E038E0002788
:1011000005E0234FB84201D1022700E0072707FA84
:1011100008F73743C9F80870DAF800605746D1F885
:10112000048096435FEAC83800D516433E60DBF87A
:1011300000605F46D1F8048096435FEA883800D5A6
:1011400016433E60DEF800607746D1F8048096438F
:101150005FEAC82800D516433E60094F0C373E6849
:10116000D1F8048096435FEA882800D516433E6094
:101170005B1C0A6832FA03F67FF44CAF00F00AB841
:10118000000401400010024000000140000400483B
:10119000000800481CBCBDE8E08F000001488068E2
:1011A000704700000800002002488168027811445E
:1011B000816070470800002010B50024032000F073
:1011C00071F8002000F008F808B1012401E000F0F7
:1011D00025F8204610BD000070B50E4E05460024CF
:1011E000307898B14FF47A71B1FBF0F00A49096890
:1011F000B1FBF0F000F0B6FD40B9102D06D2002290
:101200002946501E00F02EF8756000E001242046AB
:1012100070BD00000800002014000020094808B537
:10122000016E41F001010166016E01F001010091C2
:10123000816D41F080518165806D00F0805000909B
:1012400008BD000000100240002809DB00F01F026A
:10125000012191404009800000F1E020C0F8001118
:1012600070470000F0B40E4B1B680C46C3F302231A
:10127000C3F10705042D00D90425191D072901D242
:10128000002300E0DB1E012606FA05F1491E21407D
:1012900099409E40761E16403143F0BC01F0A4BC3C
:1012A0000CED00E0064900F0070208684FF6FF0366
:1012B000184040EA0220034A1043086070470000CB
:1012C0000CED00E00000FA051649B0F5007F086853
:1012D000C0F3412009D0022805D0086820F4C0607E
:1012E00040F480600860002070470128FBD0086847
:1012F00020F4C06040F4007008600B48322200689F
:1013000050430A4AB0FBF2F0401C00E0401E4A691C
:10131000520501D50028F9D148694005E3D50320DD
:1013200070470000007000401400002040420F0091
:101330000248006800F4C060704700000070004080
:101340000248016841F480710160704700700040FC
:101350000248016841F0040101607047001002403A
:101360002DE9F84F0446002700889C4D3E460005B5
:1013700015D5E06B60B1B0F5000F04D0B0F5400FAB
:101380002BD001270AE0E86840F48030E86024E0D0
:101390000021201D01F04AF807001ED03E462068BB
:1013A000800338D5A86D4FF00008C00009D4A86D9F
:1013B00040F08050A865A86D4FF0010800F0805003
:1013C0000090DFF81CA2DAF8001041F48071CAF82E
:1013D0000010FFF7E3FE814610E0D5F88800E16BCE
:1013E00020F440000843C5F88800D8E7FFF7D6FE90
:1013F000A0EB0900022801D9032704E0DAF8000075
:10140000C005F3D5EFB33E46B8F1000F03D0A86D89
:1014100020F08050A8652078C00707D0D5F8880054
:10142000216A20F003000843C5F88800207880076F
:1014300007D5D5F88800616A20F00C000843C5F88C
:1014400088002078800607D5D5F88800A16A20F4A6
:1014500040600843C5F888002088800507D5D5F886
:101460008800616B20F440200843C5F8880020887C
:10147000400509D5D5F88800A16B20F44010084339
:1014800000E02EE0C5F888002078400607D5D5F8A2
:101490008800E16A20F440500843C5F8880020889D
:1014A000C00507D5D5F88800216B20F440300843EB
:1014B000C5F8880020884FF0006780044FF08068EE
:1014C0004ED5D5F88800216C20F040600843C5F85F
:1014D0008800206CB8423BD1E86840F48010E86096
:1014E0003EE0D5F8900010F4407014D0216D814298
:1014F00011D0D5F89000D5F8901020F4407041F448
:101500008031C5F89010D5F8901021F48031C5F8DD
:101510009010C5F89000C00711D0FFF73FFE0746B6
:1015200041F2883907E000BFFFF738FEC11B49458B
:1015300001D9032668E7D5F890008007F4D5D5F8DF
:101540009000216D20F440700843C5F890005BE7DF
:10155000404505D10121201D00F068FF00B106467D
:101560002068400317D5D5F88800616C20F04060F2
:101570000843C5F88800606CB84204D1E86840F4BC
:101580008010E86007E0404505D10121201D00F0F2
:101590004DFF00B106462088400411D5D5F88800DB
:1015A000A16C20F040500843C5F88800A06CB0F151
:1015B000805F05D10221201D00F038FF00B10646F2
:1015C0002088000406D555F8880FE16C20F0804093
:1015D00008432860304600F005B8000000100240C3
:1015E0000070004018BCBDE8E08F00002DE9F04716
:1015F0000F46050058D0404E306800F00700B84252
:1016000009D2306820F0070038433060306800F0BD
:101610000700B84248D12878384CC0072CD06868F9
:10162000032811D0022812D0216898B14905002959
:101630003ADAA16821F003010143A160FFF7AEFD92
:10164000804641F2883910E021688901EFE721687E
:101650008903ECE78907EAE7FFF7A0FDA0EB0801A3
:10166000494502D90320BDE8F087A068696800F009
:101670000C00B0EB810FEFD12878800705D5A0686A
:10168000A96820F0F0000843A060306800F007006F
:10169000B8420BD9306820F007003843306030681A
:1016A00000F00700B84201D00120DCE728784007AD
:1016B00005D5A068E96820F4E0600843A0602878B8
:1016C000000706D5A068296920F4605040EAC100EF
:1016D000A06000F03FF8A168094AC1F30311515C12
:1016E00001F01F01C8400749086007480068BDE8CD
:1016F000F047FFF771BD00000020024000100240DB
:10170000142E0008140000200C0000200548064993
:1017100000688968054AC1F30221515C01F01F018C
:10172000C84070471400002000100240542E0008EA
:101730000548064900688968054AC1F3C221515C21
:1017400001F01F01C8407047140000200010024043
:10175000542E000870B52549002318468A68CC68C5
:1017600012F00C0204F00306214C4FEA640509D084
:101770000C2A05D0042A32D0082A00D1284670BD90
:10178000012E10D10B681B0704D4D1F89430C3F399
:10179000032302E00B68C3F30313164E56F82330FD
:1017A000DAB10C2AEBD1C86800F00300022818D087
:1017B000032818D01846CA68CB68C2F30212C3F3D4
:1017C00006234343521CB3FBF2F2C868C0F34160E6
:1017D000401C4000B2FBF0F070BD184670BD2046C2
:1017E00070BD2046E7E72846E5E70000001002400C
:1017F0000024F400242E00082DE9F84304006FD0E3
:10180000FE4DA86800F00C06E86800F00307207899
:10181000C00664D576B10C2E01D1012F0AD0A06983
:10182000002828687AD040F001002860FFF7B6FC55
:1018300080465DE02868800702D5A0690028DED0D8
:10184000216A2868000703D5286800F0F00004E04A
:10185000D5F89400F02202EA1010814216D9084609
:1018600000F07AFE00283BD1286840F0080028608C
:101870002868216A20F0F000084328606868E16960
:1018800020F47F4040EA0120686016E0286840F0BC
:10189000080028602868216A20F0F00008432860CA
:1018A0006868E16920F47F4040EA0120686026B959
:1018B000206A00F051FE0028D5D1FFF74BFFA96840
:1018C000CF4AC1F30311515C01F01F01C840CD495B
:1018D0000860CD480068FFF77FFC00287ED12EE02D
:1018E000CAE000BFFFF75AFCA0EB0800022876D838
:1018F00028688007F6D5286840F008002860286826
:10190000216A20F0F000084328606868E16920F44B
:101910007F4040EA0120686011E0FFE720F001000D
:101920002860FFF73BFC804606E000BFFFF736FC6F
:10193000A0EB08000228DAD828688007F6D42078BF
:10194000C00740D0082E18D00C2E01D1032F14D080
:101950006068B0F5803F17D0B0F5A02F286817D089
:1019600020F480302860286820F480202860606897
:10197000E0B1FFF713FC804614E02868800322D50D
:101980006068002878D01EE0286840F48030EDE7D9
:1019900040F480202860F7E7FFF700FCA0EB080088
:1019A0006428A4D828688003F6D50CE0FFF7F6FB7E
:1019B000804605E0FFF7F2FBA0EB0800642896D80C
:1019C00028688003F6D4207880073BD5042E11D0F8
:1019D0000C2E01D1022F0DD0E06801E0B6E1FFE04E
:1019E000002828681ED040F480702860FFF7D6FBDE
:1019F00007460CE0286840050CD5E0680028C1D0F7
:101A000008E000BFFFF7CAFBC01B022893D8286874
:101A10004005F7D56868217C20F0FE4040EA01606F
:101A200068600FE020F480702860FFF7B7FB07467E
:101A300005E000BFFFF7B2FBC01B0228B1D8286841
:101A40004005F7D42078000729D560690028D5F82B
:101A5000940012D040F00100C5F89400FFF79EFBFF
:101A6000074604E0FFF79AFBC01B022899D8D5F877
:101A700094008007F6D512E02BE120F00100C5F8B4
:101A80009400FFF78BFB074605E000BFFFF786FBDE
:101A9000C01B022885D8D5F894008007F6D420789A
:101AA000400766D5A86D0027C00008D4A86D40F097
:101AB0008050A865A86D012700F080500090534821
:101AC0000168C90512D40168814641F48071016042
:101AD000FFF764FB804605E0FFF760FBA0EB080022
:101AE00002287DD8D9F80000C005F5D5A0680128E6
:101AF00016D00528D5F8900017D020F00100C5F8C1
:101B00009000D5F8900020F0040000BFC5F89000C8
:101B1000A06841F28839C0B1FFF740FB80460FE072
:101B2000D5F8900040F00100F0E740F00400C5F85F
:101B30009000F5E7FFF732FBA0EB080149454FD8CD
:101B4000D5F890008007F5D50EE0FFF727FB80461B
:101B500006E000BFFFF722FBA0EB080149453FD894
:101B6000D5F890008007F5D41FB1A86D20F0805003
:101B7000A8652078800628D5606A0028D5F89800E6
:101B800012D040F00100C5F89800FFF707FB0746A8
:101B900005E000BFFFF702FBC01B022820D8D5F8E4
:101BA00098008007F6D510E020F00100C5F89800F5
:101BB000FFF7F4FA074604E0FFF7F0FAC01B02282B
:101BC0000ED8D5F898008007F6D4A06AA8B10228EC
:101BD00024D00C2E7DD0286820F08070286000E092
:101BE000B3E02868000103D4E86820F00300E8604F
:101BF000E86807490840E8600CE09FE000100240F8
:101C0000142E0008140000200C000020007000407A
:101C1000FFFFEEFEFFF7C2FA044699E0E868E26AC9
:101C200000F00301914226D1216B00F070020901FE
:101C3000103991421FD1626B00F4FE41B1EB022FCB
:101C400019D194F8382000F07841B1EBC26F12D16D
:101C5000A18F00F4C00249084905A1F50011914285
:101C600009D194F8401000F0C06049084906A1F17C
:101C7000007181424BD00C2E6FD0286840016CD48B
:101C8000286820F080702860FFF788FA064604E094
:101C9000FFF784FA801B022857D828688001F7D400
:101CA000F4E90B016FF00F0202EB01110843218AE6
:101CB0005204490802EB4151A26841EA022108435B
:101CC000217D4FF07E42490802EB41610843217BB0
:101CD00000E042E040EAC160E968214A114008435F
:101CE000E860286840F080702860E86840F0807004
:101CF000E860FFF753FA044605E000BFFFF74EFA2D
:101D0000001B022821D828688001F7D523E0286825
:101D1000800120D4286840F080702860E86840F096
:101D20008070E860FFF73AFA044604E0FFF736FAFD
:101D3000001B022809D828688001F7D50BE000BFF6
:101D4000FFF72CFA001B022802D90320BDE8F88314
:101D500028688001F4D40020F8E70120F6E70000AD
:101D60008C809D0110B5401EB0F1807F01D3012011
:101D700010BD4FF0E02460610F21601700F034FFC8
:101D80000020A06107202061002010BD704770472F
:101D900070470000F0B590F83C20012A29D00124BA
:101DA00080F83C40022280F83D2003685A689D6814
:101DB000114EB34203D122F470074A683A4322F02D
:101DC00070070A683A435A600268B24205D0B2F11D
:101DD000804F02D0094B9A4204D1896825F08003D4
:101DE0001943916080F83D40002180F83C1008467E
:101DF000F0BD0220F0BD0000002C01400040014079
:101E000010B5040003D094F83D0010B107E00120A4
:101E100010BD002084F83C00204600F023F802208A
:101E200084F83D00211D206800F088FC012084F822
:101E3000480084F83E0084F83F0084F8400084F8AD
:101E4000410084F8420084F8430084F8440084F898
:101E5000450084F8460084F8470084F83D000020DF
:101E600010BD000008B50068B0F1804F12D10A48DB
:101E7000816D41F001018165806D002200F001005B
:101E8000009011461C20FFF7EDF9BDE808401C202A
:101E9000FFF7DAB908BD00000010024090F83D10CD
:101EA000012901D001207047022180F83D1001680E
:101EB000CA6842F00102CA6000680B49884205D036
:101EC000B0F1804F02D00949884207D18168084AA1
:101ED0001140062906D0B1F5803F03D0016841F0DA
:101EE0000101016000207047002C014000400140CA
:101EF0000700010070B5044690F83C00012817D097
:101F0000012584F83C50022084F83D002268906846
:101F10002E4B184020F47F4090600868502830D045
:101F20000DDC20284DD005DC98B310283BD148E0CB
:101F3000022070BD302844D0402834D139E06028D8
:101F400028D0702806D0B0F5805F2CD0B0F5005FA7
:101F500029D10AE0CB68D1E90121206800F024FCF6
:101F60002068816841F0770109E0CB68D1E901215F
:101F7000206800F019FC2068816841F4804181608C
:101F800011E0CA684968206800F020FC50212068F0
:101F900007E016E0CA684968206800F028FC602164
:101FA000206800F00BFC84F83D50002084F83C00D1
:101FB00070BDCA684968206800F008FC40212068AC
:101FC000EFE7226801461046EBE7000088FFFEFFBE
:101FD000704770B50446006801694FF00005C943B9
:101FE000890715D4C168C943890711D4E91E016165
:101FF00001202077206880698007204602D0FFF703
:10200000E7FF04E000F0A7F8204600F0A5F82577E8
:1020100020680169C943490717D4C168C943490702
:1020200013D46FF0040101610220207720688069D9
:1020300010F4407F204602D0FFF7CAFF04E000F012
:102040008AF8204600F088F8257720680169C9439E
:10205000090716D4C168C943090712D46FF00801F3
:102060000161042020772068C0698007204602D0E3
:10207000FFF7AEFF04E000F06EF8204600F06CF8C9
:10208000257720680169C943C90617D4C168C943C7
:10209000C90613D46FF01001016108202077206871
:1020A000C06910F4407F204602D0FFF791FF04E0A2
:1020B00000F051F8204600F04FF8257720680169BC
:1020C000C943C90708D1C168C943C90704D1891EDA
:1020D0000161204600F041F820680169C943090602
:1020E00009D4C168C943090605D46FF080010161B4
:1020F0002046FFF74CFE20680169C943C90509D491
:10210000C168C943090605D46FF480710161204696
:10211000FFF73CFE20680169C943490609D4C1683C
:10212000C943490605D46FF040010161204600F023
:1021300015F820680169C94389060BD4C168C943F1
:10214000890607D46FF0200101612046BDE8704088
:10215000FFF71EBE70BD704770477047704710B5DF
:10216000040002D0606F10B107E0012010BD002014
:1021700084F87000204600F025F82420606720686D
:10218000016821F001010160204600F0D3FB012825
:10219000ECD0606A10B1204600F03BFB206841683B
:1021A00021F4904141602068816821F02A0181601A
:1021B0002068016841F0010101602046BDE810403F
:1021C00000F08BBB10B586B0044614216846FEF7BC
:1021D00034F81349206888421FD11248816D41F4B8
:1021E00000318165816D01F400310591C16C41F0D0
:1021F0000101C164C06C694600F0010005900C202B
:1022000000900220019000200290032003900720FC
:1022100004904FF09040FEF7EFFE06B010BD0000B6
:1022200000440040001002402DE9F8430446406F8E
:102230001F4616460D4620284FD1CDB1C6B194F8A1
:102240007000012849D0012084F870004FF0000888
:10225000C4F87C8021206067FEF7A0FFA4F85060DE
:102260008146A4F85260A068B0F5805F03D004E016
:102270000120BDE8F883206928B12E465FF00005F3
:1022800084F8708010E00026FAE78021204600F0F4
:1022900043FCB8B9C6B116F8010B21680885B4F83B
:1022A0005200401EA4F85200B4F852004B464FF0C2
:1022B000000200970028E8D14FF04001204600F0CE
:1022C0002BFC30B10320D4E735F8020BC0F3080033
:1022D000E3E7202060670020CBE70220C9E7FEE7A4
:1022E00000EB8100006E00F0F84070478068C0F39A
:1022F000C00070478068C0F380007047C06810F469
:10230000406F01D00020704701207047042303EA8A
:10231000D15310B518444369C1F3045107248C40CC
:10232000A3438A401343436110BD00EB8100016E5B
:1023300021F00041114301667047000030B587B0BD
:1023400018216846FDF779FF144813490024C0E9B5
:10235000001484600425C460C0E9044504760121AA
:102360004176C16180F820408462C46280F83040C8
:10237000446380F83840FEF757FB09480090062078
:10238000CDE901047F200594CDE9030569460348A2
:10239000FEF752F807B030BD0000045038030020AB
:1023A0002000F01410B588B0002412480094019465
:1023B00002940394049405944FF0804106940160C4
:1023C00040F23F61C0E901140421C0E903148021F7
:1023D0008161FFF715FD4FF4805000906946054874
:1023E000FFF788FD049404A902480694FFF7D2FC85
:1023F00008B010BD9C0300200948084901604FF453
:10240000E1314160002181600C22C160C0E9041209
:102410008161C16101624162FFF7A1BE00440040D9
:10242000E8030020FEE77047704700002DE9F04107
:10243000444C05468846E0680026810728680DD090
:10244000E16801F00301814216D1A8B1E068696832
:10245000C0F30210401C88420ED120E0012804D0B5
:10246000022805D0032807D108E02168890701E088
:1024700021684905002907DB01265FE021688903FF
:1024800002D421684903F5E7E1686A686FF00F0339
:1024900021F0730103EB021211430143E160206854
:1024A00020F080602060FEF779FE074605E000BF5F
:1024B000FEF774FEC01B022837D820680001F7D44D
:1024C000B8F1000F18D0B8F1010F1DD0287D4FF0E2
:1024D0007E41400801EB4060A96840EA0120216983
:1024E000194A114008432061206840F08060206054
:1024F000FEF754FE07461AE0A868297B000240EA6E
:10250000C1602169114AECE7288A1149400801EBB2
:102510004050A96840EA012021690E4AE1E700BF66
:10252000FEF73CFEC01B022801D9032606E0206806
:102530000001F5D52069A969084320613046BDE84E
:10254000F081000000100240FF80FFF9FF80FF07CC
:102550000000E0FFFF809FFFF8B51C4D06460024F9
:10256000A86DC00002D5FEF7E3FE0DE0A86D40F0B7
:102570008050A865A86D00F080500090FEF7D8FE4E
:10258000A96D21F08051A965B0F5007F04D0802E9F
:1025900007D94FF003040AE0802E08D9A02E01D8F5
:1025A00004E001D1022402E0702E00D10124084889
:1025B000016821F0070121430160006800F0070075
:1025C000A04201D00120F8BD0020F8BD001002405B
:1025D000002002407047FEF7E7BD000010B5ACB028
:1025E00044216846FDF729FE142126A8FDF725FEA3
:1025F000542111A8FDF721FEFEF7A2FE1E4850F857
:10260000901F21F018010160142000900120029019
:10261000002460210690CDE907410221CDE90A108E
:102620000C9010200D900720CDE90E016846109106
:10263000FFF7E2F80F2026900320279090202890A3
:102640004FF4806029904FF4C0602A90002126A8A2
:10265000FEF7CCFF44F2020011904FF0405023905F
:102660001A9411A8FEF77CFE4FF40070FEF72CFEC2
:10267000FEF76EFE2CB010BD001002400D48016840
:1026800041F4700101600C48016841F001010160F2
:10269000002181600268094B1A4002608214C26006
:1026A000026822F48022026081610249C0038039FD
:1026B0000860704788ED00E000100240FFFFF6EA76
:1026C0003EB51648174C16490268207841F820207C
:1026D000401CC0B2207001EB800013A150F8042C04
:1026E000684600F06DFA6846FDF7B2FD82B26423D9
:1026F00069460F48FFF798FD2078C72809D10020C8
:102700000C492070012008704FF448710448FDF70F
:1027100094FD0948FFF75DFC3EBD00000400002069
:10272000180000200100002025640D0A00000000B0
:10273000E8030020000000209C03002070B5026820
:10274000164B4FF08046984201D0B04203D122F0A0
:1027500070044A682243124C124D984205D0B04290
:1027600003D0A04201D0A84203D122F44076CA6827
:1027700032434E6922F08002324302608A68C262AC
:102780000A688262984203D0A04201D0A84201D1D7
:10279000096901630121416170BD0000002C014005
:1027A000004001400044014010B5846842EA032221
:1027B00024F47F440A432243826010BD826822F0E1
:1027C00070020A4342F007018160704710B5036A46
:1027D000046A24F001040462846924F0F00444EAE9
:1027E000021423F00A020A438461026210BD10B58C
:1027F000036A23F0100303628369046A23F47043BD
:1028000043EA023224F0A00343EA0111826101622B
:1028100010BD90F82410C90706D001684A68836A81
:1028200022F400321A434A6090F82410890706D532
:1028300001684A68C36A22F480321A434A6090F8F9
:102840002410490706D501684A68036B22F48022E8
:102850001A434A6090F82410090706D501684A68AF
:10286000436B22F400421A434A6090F82410C906D0
:1028700006D501688A68836B22F480521A438A6005
:1028800090F82410890606D501688A68C36B22F483
:1028900000521A438A6090F82410490611D5016845
:1028A0004A68036C22F480121A434A60016CB1F545
:1028B000801F06D101684A68436C22F4C0021A43A3
:1028C0004A6090F82410090606D501684A68806CB1
:1028D00022F4002202434A607047F8B500260446FD
:1028E000C667FEF75BFC0546206800686FF07E4710
:1028F000000708D52B4600224FF400112046009710
:1029000000F00AF960B92068006840070AD52B4634
:1029100000224FF480012046009700F0FDF808B136
:102920000320F8BD20206067A06784F87060002055
:10293000F8BD00002DE9F041044601688068226975
:10294000E3691043626900251A4310436B4F0A681C
:102950006B4B1A4002430A6020684168E26821F428
:102960004051114341602168A069B94201D0226AF7
:1029700010438A6822F4306202438A606149236806
:1029800061488B420DD1D0F8880010F0030006D0CA
:10299000012838D0022834D0032821D135E0012184
:1029A0001FE05A498B420BD1D0F8880010F00C0080
:1029B00025D0042827D0082823D00C2810D124E0C3
:1029C000BB420DD1D0F8880010F4406017D0B0F5AC
:1029D000806F18D0B0F5006F13D0B0F5406F14D0F1
:1029E00010214B4800264FF40042BB422FD171B159
:1029F000022912D004290DD0082973D125E0002125
:102A0000EFE70221EDE70421EBE70821E9E7FEF714
:102A10007DFE01E0FEF79EFEF0B3626802EB42012C
:102A200081425FD8B0EB023F5CD8010E0002730810
:102A30004FEA3207C01959410023FDF7C3FB354A5D
:102A4000A0F54071914251D94CE01046E5E7E369A9
:102A50004FF6EF77934229D1092943D2DFE801F0FD
:102A600005080E420B4242422400FEF74FFE04E0EE
:102A7000FEF75EFE01E0FEF76DFE68B141006068A2
:102A800001EB5001B1FBF0F080B2A0F11001B942AE
:102A900028D84FF6F07100E02AE00140C0F3420070
:102AA00001432068C16023E01046E7E7092919D2F5
:102AB000DFE801F005080E180B1818181A00FEF7C9
:102AC00025FE04E0FEF734FE01E0FEF743FE78B198
:102AD000616800EB5100B0FBF1F080B2A0F1100191
:102AE000B94203D9012503E01046F1E72168C86027
:102AF000266628466666BDE8F0810000008000403A
:102B0000F369FFEF0038014000100240004400402C
:102B10000024F400FFFC0F002DE9F0479A46174609
:102B20000E4604464FF000094FF02008089D39E09A
:102B3000681C37D0FEF732FBA0EB0A00A84222D86F
:102B40000DB32068016849072CD5C069C043000552
:102B500028D421684FF4006008622068016821F4DD
:102B6000D07101602068816821F001018160C4F8A2
:102B70007480C4F87880C4F87C8000BF84F87090BA
:102B80000320BDE8F0872068016821F4D07101605E
:102B90002068816821F001018160C4F87480C4F864
:102BA0007880EBE72068C06936EA000004D0002096
:102BB000B842BDD00020E4E70120F9E7FEE70000BD
:102BC0000FB4084B10B504A902AA039800F02CF822
:102BD000044602A9002000F0D4F8204610BC5DF89D
:102BE00014FB0000832D00080907090E002804DBF0
:102BF00000F1E02080F80014704700F00F0000F1B1
:102C0000E02080F8141D704702E008C8121F08C1B8
:102C1000002AFAD170477047002001E001C1121F5D
:102C2000002AFBD1704700002DE9FF4F89B09B4679
:102C30000446002506E025280BD05A460B999047FC
:102C4000641C6D1C20780028F5D10DB0284600F0DA
:102C500095B80027B8460122474900E0074314F819
:102C6000013F203B02FA03F00842F7D120782E28DA
:102C700019D114F8010F47F004072A280ED06FF07D
:102C80002F022078A0F1300109290CD808EB880127
:102C900002EB410100EB0108641CF2E70A98641C96
:102CA00050F8048B0A9020780028CED0642808D0F1
:102CB000692806D075281ED05A460B9990476D1C7E
:102CC00058E00A994FF00A0901C90A91002802DA6E
:102CD00040422D2102E0390504D52B218DF820102A
:102CE000012103E0F90704D02021F7E78A4608AE66
:102CF0000DE00021FAE70A994FF00A0901C90A918B
:102D0000F7E74946FDF7ABFA303106F8011D002818
:102D1000F7D1ADEB060000F12009780701D44FF0A0
:102D20000108C84502DDA8EB090000E0002080464C
:102D3000002706E008A85A46C05D0B9990476D1C15
:102D40007F1C5745F6DB04E030205A460B9990472C
:102D50006D1CB8F10001A8F10108F5DC05E016F8DA
:102D6000010B5A460B9990476D1CB9F10001A9F16E
:102D70000109F4DC641C65E70928010030BCBDE8EA
:102D8000C08F0A68531C0B601070704708B5FEF7BF
:102D900013FAFFF723FC1C48C16C41F00401C16425
:102DA000C16C01F004010091C16C41F00101C164EA
:102DB000C16C01F001010091816C41F0010181645D
:102DC000806C002200F00100009011460B20FEF7FD
:102DD00049FA0B20FEF738FAFFF7B0FAFFF70CFBC1
:102DE000FFF7E0FA012209490948FDF745FF0848C5
:102DF000FDF79CFF06486430FFF750F801220349B5
:102E00000348FDF739FFF9E70010024004000020F5
:102E1000380300200000000000000000010203044D
:102E200006070809A0860100400D0300801A06006D
:102E300000350C0040420F0080841E0000093D0058
:102E400000127A000024F40000366E010048E80108
:102E5000006CDC0200000000010203047C2E00086C
:102E60000000002018000000082C0008942E000824
:102E70001800002098080000182C0008000000002E
:102E80000000000001000000100000000000000031
:042E900000093D00F8
:040000050800018D61
:00000001FF
